Component: ARM Compiler 5.06 update 5 (build 528) Tool: armlink [4d35e2]

==============================================================================

Section Cross References

    startup_stm32f746xx.o(RESET) refers to startup_stm32f746xx.o(STACK) for __initial_sp
    startup_stm32f746xx.o(RESET) refers to startup_stm32f746xx.o(.text) for Reset_Handler
    startup_stm32f746xx.o(RESET) refers to stm32f7xx_it.o(i.NMI_Handler) for NMI_Handler
    startup_stm32f746xx.o(RESET) refers to stm32f7xx_it.o(i.HardFault_Handler) for HardFault_Handler
    startup_stm32f746xx.o(RESET) refers to stm32f7xx_it.o(i.MemManage_Handler) for MemManage_Handler
    startup_stm32f746xx.o(RESET) refers to stm32f7xx_it.o(i.BusFault_Handler) for BusFault_Handler
    startup_stm32f746xx.o(RESET) refers to stm32f7xx_it.o(i.UsageFault_Handler) for UsageFault_Handler
    startup_stm32f746xx.o(RESET) refers to stm32f7xx_it.o(i.SVC_Handler) for SVC_Handler
    startup_stm32f746xx.o(RESET) refers to stm32f7xx_it.o(i.DebugMon_Handler) for DebugMon_Handler
    startup_stm32f746xx.o(RESET) refers to stm32f7xx_it.o(i.PendSV_Handler) for PendSV_Handler
    startup_stm32f746xx.o(RESET) refers to stm32f7xx_it.o(i.SysTick_Handler) for SysTick_Handler
    startup_stm32f746xx.o(RESET) refers to stm32f7xx_it.o(i.DMA2D_IRQHandler) for DMA2D_IRQHandler
    startup_stm32f746xx.o(.text) refers to system_stm32f7xx.o(i.SystemInit) for SystemInit
    startup_stm32f746xx.o(.text) refers to entry.o(.ARM.Collect$$$$00000000) for __main
    main.o(i.CheckForUserInput) refers to stm32f7xx_hal_gpio.o(i.HAL_GPIO_ReadPin) for HAL_GPIO_ReadPin
    main.o(i.CheckForUserInput) refers to stm32f7xx_hal.o(i.HAL_Delay) for HAL_Delay
    main.o(i.MX_DMA2D_Init) refers to stm32f7xx_hal_dma2d.o(i.HAL_DMA2D_Init) for HAL_DMA2D_Init
    main.o(i.MX_DMA2D_Init) refers to stm32f7xx_hal_dma2d.o(i.HAL_DMA2D_ConfigLayer) for HAL_DMA2D_ConfigLayer
==============================================================================

Removing Unused input sections from the image.

    Removing startup_stm32f746xx.o(HEAP), (8192 bytes).
    Removing main.o(.rev16_text), (4 bytes).
    Removing main.o(.revsh_text), (4 bytes).
    Removing main.o(.rrx_text), (6 bytes).
    Removing main.o(i._Error_Handler), (2 bytes).
    Removing main.o(.data), (4 bytes).
    Removing stm32f7xx_it.o(.rev16_text), (4 bytes).
    Removing stm32f7xx_it.o(.revsh_text), (4 bytes).
    Removing stm32f7xx_it.o(.rrx_text), (6 bytes).
    Removing fatfs.o(.rev16_text), (4 bytes).
    Removing fatfs.o(.revsh_text), (4 bytes).
    Removing fatfs.o(.rrx_text), (6 bytes).
    Removing fatfs.o(i.get_fattime), (4 bytes).
    Removing fatfs.o(.bss), (4148 bytes).
    Removing fatfs.o(.bss), (4144 bytes).
    Removing stm32f7xx_hal_msp.o(.rev16_text), (4 bytes).
    Removing stm32f7xx_hal_msp.o(.revsh_text), (4 bytes).
    Removing stm32f7xx_hal_msp.o(.rrx_text), (6 bytes).
==============================================================================

Image Symbol Table

    Local Symbols

    Symbol Name                              Value     Ov Type        Size  Object(Section)

    ..//Src/system_stm32f7xx.c               0x00000000   Number         0  system_stm32f7xx.o ABSOLUTE
    ../Drivers/STM32F7xx_HAL_Driver/Src/stm32f7xx_hal.c 0x00000000   Number         0  stm32f7xx_hal.o ABSOLUTE
    ../Drivers/STM32F7xx_HAL_Driver/Src/stm32f7xx_hal_cortex.c 0x00000000   Number         0  stm32f7xx_hal_cortex.o ABSOLUTE
    ../Drivers/STM32F7xx_HAL_Driver/Src/stm32f7xx_hal_dma.c 0x00000000   Number         0  stm32f7xx_hal_dma.o ABSOLUTE
    ../Drivers/STM32F7xx_HAL_Driver/Src/stm32f7xx_hal_dma2d.c 0x00000000   Number         0  stm32f7xx_hal_dma2d.o ABSOLUTE
    ../Drivers/STM32F7xx_HAL_Driver/Src/stm32f7xx_hal_dma_ex.c 0x00000000   Number         0  stm32f7xx_hal_dma_ex.o ABSOLUTE
    ../Drivers/STM32F7xx_HAL_Driver/Src/stm32f7xx_hal_dsi.c 0x00000000   Number         0  stm32f7xx_hal_dsi.o ABSOLUTE
    ../Drivers/STM32F7xx_HAL_Driver/Src/stm32f7xx_hal_flash.c 0x00000000   Number         0  stm32f7xx_hal_flash.o ABSOLUTE
    ../Drivers/STM32F7xx_HAL_Driver/Src/stm32f7xx_hal_flash_ex.c 0x00000000   Number         0  stm32f7xx_hal_flash_ex.o ABSOLUTE
    ../Drivers/STM32F7xx_HAL_Driver/Src/stm32f7xx_hal_gpio.c 0x00000000   Number         0  stm32f7xx_hal_gpio.o ABSOLUTE
    ../Drivers/STM32F7xx_HAL_Driver/Src/stm32f7xx_hal_i2c.c 0x00000000   Number         0  stm32f7xx_hal_i2c.o ABSOLUTE
    ../Drivers/STM32F7xx_HAL_Driver/Src/stm32f7xx_hal_i2c_ex.c 0x00000000   Number         0  stm32f7xx_hal_i2c_ex.o ABSOLUTE
    ../Drivers/STM32F7xx_HAL_Driver/Src/stm32f7xx_hal_ltdc.c 0x00000000   Number         0  stm32f7xx_hal_ltdc.o ABSOLUTE
    ../Drivers/STM32F7xx_HAL_Driver/Src/stm32f7xx_hal_ltdc_ex.c 0x00000000   Number         0  stm32f7xx_hal_ltdc_ex.o ABSOLUTE
    ../Drivers/STM32F7xx_HAL_Driver/Src/stm32f7xx_hal_pwr.c 0x00000000   Number         0  stm32f7xx_hal_pwr.o ABSOLUTE
    ../Drivers/STM32F7xx_HAL_Driver/Src/stm32f7xx_hal_pwr_ex.c 0x00000000   Number         0  stm32f7xx_hal_pwr_ex.o ABSOLUTE
    ../Drivers/STM32F7xx_HAL_Driver/Src/stm32f7xx_hal_rcc.c 0x00000000   Number         0  stm32f7xx_hal_rcc.o ABSOLUTE
    ../Drivers/STM32F7xx_HAL_Driver/Src/stm32f7xx_hal_rcc_ex.c 0x00000000   Number         0  stm32f7xx_hal_rcc_ex.o ABSOLUTE
    ../Drivers/STM32F7xx_HAL_Driver/Src/stm32f7xx_hal_rng.c 0x00000000   Number         0  stm32f7xx_hal_rng.o ABSOLUTE
    ../Drivers/STM32F7xx_HAL_Driver/Src/stm32f7xx_hal_sd.c 0x00000000   Number         0  stm32f7xx_hal_sd.o ABSOLUTE
    ../Drivers/STM32F7xx_HAL_Driver/Src/stm32f7xx_hal_sdram.c 0x00000000   Number         0  stm32f7xx_hal_sdram.o ABSOLUTE
    ../Drivers/STM32F7xx_HAL_Driver/Src/stm32f7xx_hal_tim.c 0x00000000   Number         0  stm32f7xx_hal_tim.o ABSOLUTE
    ../Drivers/STM32F7xx_HAL_Driver/Src/stm32f7xx_hal_tim_ex.c 0x00000000   Number         0  stm32f7xx_hal_tim_ex.o ABSOLUTE
    ../Drivers/STM32F7xx_HAL_Driver/Src/stm32f7xx_ll_fmc.c 0x00000000   Number         0  stm32f7xx_ll_fmc.o ABSOLUTE
    ../Drivers/STM32F7xx_HAL_Driver/Src/stm32f7xx_ll_sdmmc.c 0x00000000   Number         0  stm32f7xx_ll_sdmmc.o ABSOLUTE
    ../Middlewares/Third_Party/FatFs/src/diskio.c 0x00000000   Number         0  diskio.o ABSOLUTE
    ../Middlewares/Third_Party/FatFs/src/ff.c 0x00000000   Number         0  ff.o ABSOLUTE
    ../Middlewares/Third_Party/FatFs/src/ff_gen_drv.c 0x00000000   Number         0  ff_gen_drv.o ABSOLUTE
    ../Middlewares/Third_Party/FatFs/src/option/syscall.c 0x00000000   Number         0  syscall.o ABSOLUTE
    ../Src/bsp_driver_sd.c                   0x00000000   Number         0  bsp_driver_sd.o ABSOLUTE
    ../Src/fatfs.c                           0x00000000   Number         0  fatfs.o ABSOLUTE
    ../Src/main.c                            0x00000000   Number         0  main.o ABSOLUTE
    ../Src/sd_diskio.c                       0x00000000   Number         0  sd_diskio.o ABSOLUTE
    ../Src/stm32f7xx_hal_msp.c               0x00000000   Number         0  stm32f7xx_hal_msp.o ABSOLUTE
    ../Src/stm32f7xx_it.c                    0x00000000   Number         0  stm32f7xx_it.o ABSOLUTE
    ../clib/microlib/division.c              0x00000000   Number         0  uldiv.o ABSOLUTE
    ../clib/microlib/division.c              0x00000000   Number         0  uidiv.o ABSOLUTE
    ../clib/microlib/init/entry.s            0x00000000   Number         0  entry9b.o ABSOLUTE
    ../clib/microlib/init/entry.s            0x00000000   Number         0  entry9a.o ABSOLUTE
    ../clib/microlib/init/entry.s            0x00000000   Number         0  entry8a.o ABSOLUTE
    ../clib/microlib/init/entry.s            0x00000000   Number         0  entry8b.o ABSOLUTE
    ../clib/microlib/init/entry.s            0x00000000   Number         0  entry.o ABSOLUTE
    ../clib/microlib/init/entry.s            0x00000000   Number         0  entry2.o ABSOLUTE
    ../clib/microlib/init/entry.s            0x00000000   Number         0  entry11b.o ABSOLUTE
    ../clib/microlib/init/entry.s            0x00000000   Number         0  entry11a.o ABSOLUTE
    ../clib/microlib/init/entry.s            0x00000000   Number         0  entry7b.o ABSOLUTE
    ../clib/microlib/init/entry.s            0x00000000   Number         0  entry5.o ABSOLUTE
    ../clib/microlib/init/entry.s            0x00000000   Number         0  entry10b.o ABSOLUTE
    ../clib/microlib/init/entry.s            0x00000000   Number         0  entry7a.o ABSOLUTE
    ../clib/microlib/init/entry.s            0x00000000   Number         0  entry10a.o ABSOLUTE
    ../clib/microlib/longlong.c              0x00000000   Number         0  llushr.o ABSOLUTE
    ../clib/microlib/longlong.c              0x00000000   Number         0  llsshr.o ABSOLUTE
    ../clib/microlib/longlong.c              0x00000000   Number         0  llshl.o ABSOLUTE
    ../clib/microlib/printf/printf.c         0x00000000   Number         0  printf5.o ABSOLUTE
    ../clib/microlib/printf/printf.c         0x00000000   Number         0  printf4.o ABSOLUTE
    ../clib/microlib/printf/printf.c         0x00000000   Number         0  printf1.o ABSOLUTE
    ../clib/microlib/printf/printf.c         0x00000000   Number         0  printf2.o ABSOLUTE
    ../clib/microlib/printf/printf.c         0x00000000   Number         0  printf3.o ABSOLUTE
    ../clib/microlib/printf/printf.c         0x00000000   Number         0  printf0.o ABSOLUTE
    ../clib/microlib/printf/printf.c         0x00000000   Number         0  printfb.o ABSOLUTE
    ../clib/microlib/printf/printf.c         0x00000000   Number         0  printfa.o ABSOLUTE
    ../clib/microlib/printf/printf.c         0x00000000   Number         0  printf8.o ABSOLUTE
    ../clib/microlib/printf/printf.c         0x00000000   Number         0  printf6.o ABSOLUTE
    ../clib/microlib/printf/printf.c         0x00000000   Number         0  printf7.o ABSOLUTE
    ../clib/microlib/printf/stubs.s          0x00000000   Number         0  stubs.o ABSOLUTE
    ../clib/microlib/stdio/fputc.c           0x00000000   Number         0  fputc.o ABSOLUTE
    ../clib/microlib/stdio/semi.s            0x00000000   Number         0  semi.o ABSOLUTE
    ../clib/microlib/stdio/streams.c         0x00000000   Number         0  stdout.o ABSOLUTE
    ../clib/microlib/string/memcpy.c         0x00000000   Number         0  memcpyb.o ABSOLUTE
    ../clib/microlib/string/memcpy.c         0x00000000   Number         0  memcpya.o ABSOLUTE
    ../clib/microlib/stubs.s                 0x00000000   Number         0  iusefp.o ABSOLUTE
    ../clib/microlib/stubs.s                 0x00000000   Number         0  iusesemip.o ABSOLUTE
    ../fplib/microlib/fpadd.c                0x00000000   Number         0  dadd.o ABSOLUTE
    ../fplib/microlib/fpdiv.c                0x00000000   Number         0  ddiv.o ABSOLUTE
    ../fplib/microlib/fpepilogue.c           0x00000000   Number         0  depilogue.o ABSOLUTE
    ../fplib/microlib/fpfix.c                0x00000000   Number         0  dfixul.o ABSOLUTE
    ../fplib/microlib/fpmul.c                0x00000000   Number         0  dmul.o ABSOLUTE
    ..\Drivers\STM32F7xx_HAL_Driver\Src\stm32f7xx_hal.c 0x00000000   Number         0  stm32f7xx_hal.o ABSOLUTE
    ..\Drivers\STM32F7xx_HAL_Driver\Src\stm32f7xx_hal_cortex.c 0x00000000   Number         0  stm32f7xx_hal_cortex.o ABSOLUTE
    ..\Drivers\STM32F7xx_HAL_Driver\Src\stm32f7xx_hal_dma.c 0x00000000   Number         0  stm32f7xx_hal_dma.o ABSOLUTE
    ..\Drivers\STM32F7xx_HAL_Driver\Src\stm32f7xx_hal_dma2d.c 0x00000000   Number         0  stm32f7xx_hal_dma2d.o ABSOLUTE
    ..\Drivers\STM32F7xx_HAL_Driver\Src\stm32f7xx_hal_dma_ex.c 0x00000000   Number         0  stm32f7xx_hal_dma_ex.o ABSOLUTE
    ..\Drivers\STM32F7xx_HAL_Driver\Src\stm32f7xx_hal_dsi.c 0x00000000   Number         0  stm32f7xx_hal_dsi.o ABSOLUTE
    ..\Drivers\STM32F7xx_HAL_Driver\Src\stm32f7xx_hal_flash.c 0x00000000   Number         0  stm32f7xx_hal_flash.o ABSOLUTE
    ..\Drivers\STM32F7xx_HAL_Driver\Src\stm32f7xx_hal_flash_ex.c 0x00000000   Number         0  stm32f7xx_hal_flash_ex.o ABSOLUTE
    ..\Drivers\STM32F7xx_HAL_Driver\Src\stm32f7xx_hal_gpio.c 0x00000000   Number         0  stm32f7xx_hal_gpio.o ABSOLUTE
    ..\Drivers\STM32F7xx_HAL_Driver\Src\stm32f7xx_hal_i2c.c 0x00000000   Number         0  stm32f7xx_hal_i2c.o ABSOLUTE
    ..\Drivers\STM32F7xx_HAL_Driver\Src\stm32f7xx_hal_i2c_ex.c 0x00000000   Number         0  stm32f7xx_hal_i2c_ex.o ABSOLUTE
    ..\Drivers\STM32F7xx_HAL_Driver\Src\stm32f7xx_hal_ltdc.c 0x00000000   Number         0  stm32f7xx_hal_ltdc.o ABSOLUTE
    ..\Drivers\STM32F7xx_HAL_Driver\Src\stm32f7xx_hal_ltdc_ex.c 0x00000000   Number         0  stm32f7xx_hal_ltdc_ex.o ABSOLUTE
    ..\Drivers\STM32F7xx_HAL_Driver\Src\stm32f7xx_hal_pwr.c 0x00000000   Number         0  stm32f7xx_hal_pwr.o ABSOLUTE
    ..\Drivers\STM32F7xx_HAL_Driver\Src\stm32f7xx_hal_pwr_ex.c 0x00000000   Number         0  stm32f7xx_hal_pwr_ex.o ABSOLUTE
    ..\Drivers\STM32F7xx_HAL_Driver\Src\stm32f7xx_hal_rcc.c 0x00000000   Number         0  stm32f7xx_hal_rcc.o ABSOLUTE
    ..\Drivers\STM32F7xx_HAL_Driver\Src\stm32f7xx_hal_rcc_ex.c 0x00000000   Number         0  stm32f7xx_hal_rcc_ex.o ABSOLUTE
    ..\Drivers\STM32F7xx_HAL_Driver\Src\stm32f7xx_hal_rng.c 0x00000000   Number         0  stm32f7xx_hal_rng.o ABSOLUTE
    ..\Drivers\STM32F7xx_HAL_Driver\Src\stm32f7xx_hal_sd.c 0x00000000   Number         0  stm32f7xx_hal_sd.o ABSOLUTE
    ..\Drivers\STM32F7xx_HAL_Driver\Src\stm32f7xx_hal_sdram.c 0x00000000   Number         0  stm32f7xx_hal_sdram.o ABSOLUTE
    ..\Drivers\STM32F7xx_HAL_Driver\Src\stm32f7xx_hal_tim.c 0x00000000   Number         0  stm32f7xx_hal_tim.o ABSOLUTE
    ..\Drivers\STM32F7xx_HAL_Driver\Src\stm32f7xx_hal_tim_ex.c 0x00000000   Number         0  stm32f7xx_hal_tim_ex.o ABSOLUTE
    ..\Drivers\STM32F7xx_HAL_Driver\Src\stm32f7xx_ll_fmc.c 0x00000000   Number         0  stm32f7xx_ll_fmc.o ABSOLUTE
    ..\Drivers\STM32F7xx_HAL_Driver\Src\stm32f7xx_ll_sdmmc.c 0x00000000   Number         0  stm32f7xx_ll_sdmmc.o ABSOLUTE
    ..\Middlewares\Third_Party\FatFs\src\diskio.c 0x00000000   Number         0  diskio.o ABSOLUTE
    ..\Middlewares\Third_Party\FatFs\src\ff.c 0x00000000   Number         0  ff.o ABSOLUTE
    ..\Middlewares\Third_Party\FatFs\src\ff_gen_drv.c 0x00000000   Number         0  ff_gen_drv.o ABSOLUTE
    ..\Middlewares\Third_Party\FatFs\src\option\syscall.c 0x00000000   Number         0  syscall.o ABSOLUTE
    ..\Src\FT5336.c                          0x00000000   Number         0  ft5336.o ABSOLUTE
    ..\Src\LTDC.c                            0x00000000   Number         0  ltdc.o ABSOLUTE
    ..\Src\MT48LC4M32B2.c                    0x00000000   Number         0  mt48lc4m32b2.o ABSOLUTE
    ..\Src\bsp_driver_sd.c                   0x00000000   Number         0  bsp_driver_sd.o ABSOLUTE
    ..\Src\fatfs.c                           0x00000000   Number         0  fatfs.o ABSOLUTE
    ..\Src\font12.c                          0x00000000   Number         0  font12.o ABSOLUTE
    ..\Src\font16.c                          0x00000000   Number         0  font16.o ABSOLUTE
    ..\Src\font20.c                          0x00000000   Number         0  font20.o ABSOLUTE
    ..\Src\font24.c                          0x00000000   Number         0  font24.o ABSOLUTE
    ..\Src\font8.c                           0x00000000   Number         0  font8.o ABSOLUTE
    ..\Src\main.c                            0x00000000   Number         0  main.o ABSOLUTE
    ..\Src\sd_diskio.c                       0x00000000   Number         0  sd_diskio.o ABSOLUTE
    ..\Src\stm32f7xx_hal_msp.c               0x00000000   Number         0  stm32f7xx_hal_msp.o ABSOLUTE
    ..\Src\stm32f7xx_it.c                    0x00000000   Number         0  stm32f7xx_it.o ABSOLUTE
    ..\\Src\\FT5336.c                        0x00000000   Number         0  ft5336.o ABSOLUTE
    ..\\Src\\LTDC.c                          0x00000000   Number         0  ltdc.o ABSOLUTE
    ..\\Src\\MT48LC4M32B2.c                  0x00000000   Number         0  mt48lc4m32b2.o ABSOLUTE
    ..\\Src\system_stm32f7xx.c               0x00000000   Number         0  system_stm32f7xx.o ABSOLUTE
    cdrcmple.s                               0x00000000   Number         0  cdrcmple.o ABSOLUTE
    dc.s                                     0x00000000   Number         0  dc.o ABSOLUTE
    handlers.s                               0x00000000   Number         0  handlers.o ABSOLUTE
    init.s                                   0x00000000   Number         0  init.o ABSOLUTE
    startup_stm32f746xx.s                    0x00000000   Number         0  startup_stm32f746xx.o ABSOLUTE
    RESET                                    0x08000000   Section      456  startup_stm32f746xx.o(RESET)
    .ARM.Collect$$$$00000000                 0x080001c8   Section        0  entry.o(.ARM.Collect$$$$00000000)
    .ARM.Collect$$$$00000001                 0x080001c8   Section        4  entry2.o(.ARM.Collect$$$$00000001)
    .ARM.Collect$$$$00000004                 0x080001cc   Section        4  entry5.o(.ARM.Collect$$$$00000004)
    .ARM.Collect$$$$00000008                 0x080001d0   Section        0  entry7b.o(.ARM.Collect$$$$00000008)
    .ARM.Collect$$$$0000000A                 0x080001d0   Section        0  entry8b.o(.ARM.Collect$$$$0000000A)
    .ARM.Collect$$$$0000000B                 0x080001d0   Section        8  entry9a.o(.ARM.Collect$$$$0000000B)
    .ARM.Collect$$$$0000000D                 0x080001d8   Section        0  entry10a.o(.ARM.Collect$$$$0000000D)
    .ARM.Collect$$$$0000000F                 0x080001d8   Section        0  entry11a.o(.ARM.Collect$$$$0000000F)
    .ARM.Collect$$$$00002712                 0x080001d8   Section        4  entry2.o(.ARM.Collect$$$$00002712)
    __lit__00000000                          0x080001d8   Data           4  entry2.o(.ARM.Collect$$$$00002712)
    .text                                    0x080001dc   Section       36  startup_stm32f746xx.o(.text)
    $v0                                      0x080001dc   Number         0  startup_stm32f746xx.o(.text)
    .text                                    0x08000200   Section        0  uldiv.o(.text)
    .text                                    0x08000262   Section        0  memcpya.o(.text)
    .text                                    0x08000286   Section        0  uidiv.o(.text)
    .text                                    0x080002b2   Section        0  llshl.o(.text)
    .text                                    0x080002d0   Section        0  llushr.o(.text)
    .text                                    0x080002f0   Section       36  init.o(.text)
    i.BSP_SD_GetCardInfo                     0x08000314   Section        0  bsp_driver_sd.o(i.BSP_SD_GetCardInfo)
    i.BSP_SD_GetCardState                    0x08000320   Section        0  bsp_driver_sd.o(i.BSP_SD_GetCardState)
    i.BSP_SD_Init                            0x08000338   Section        0  bsp_driver_sd.o(i.BSP_SD_Init)
    i.BSP_SD_ReadBlocks_DMA                  0x0800036c   Section        0  bsp_driver_sd.o(i.BSP_SD_ReadBlocks_DMA)
    i.BSP_SD_WriteBlocks_DMA                 0x08000388   Section        0  bsp_driver_sd.o(i.BSP_SD_WriteBlocks_DMA)
    i.BusFault_Handler                       0x080003a4   Section        0  stm32f7xx_it.o(i.BusFault_Handler)
    i.CheckForUserInput                      0x080003a8   Section        0  main.o(i.CheckForUserInput)
    i.DMA2D_IRQHandler                       0x080003d8   Section        0  stm32f7xx_it.o(i.DMA2D_IRQHandler)
    i.DMA_SetConfig                          0x080003e4   Section        0  stm32f7xx_hal_dma.o(i.DMA_SetConfig)
    DMA_SetConfig                            0x080003e5   Thumb Code    40  stm32f7xx_hal_dma.o(i.DMA_SetConfig)
    i.DebugMon_Handler                       0x0800040c   Section        0  stm32f7xx_it.o(i.DebugMon_Handler)
    i.FATFS_LinkDriver                       0x0800040e   Section        0  ff_gen_drv.o(i.FATFS_LinkDriver)
    i.FATFS_LinkDriverEx                     0x08000414   Section        0  ff_gen_drv.o(i.FATFS_LinkDriverEx)
    i.FMC_SDRAM_Init                         0x08000454   Section        0  stm32f7xx_ll_fmc.o(i.FMC_SDRAM_Init)
    i.FMC_SDRAM_ProgramRefreshRate           0x080004b2   Section        0  stm32f7xx_ll_fmc.o(i.FMC_SDRAM_ProgramRefreshRate)
    i.FMC_SDRAM_SendCommand                  0x080004be   Section        0  stm32f7xx_ll_fmc.o(i.FMC_SDRAM_SendCommand)
    i.FMC_SDRAM_Timing_Init                  0x080004e0   Section        0  stm32f7xx_ll_fmc.o(i.FMC_SDRAM_Timing_Init)
    i.HAL_DMA2D_CLUTLoadingCpltCallback      0x0800056c   Section        0  stm32f7xx_hal_dma2d.o(i.HAL_DMA2D_CLUTLoadingCpltCallback)
    i.HAL_DMA2D_ConfigLayer                  0x08000570   Section        0  stm32f7xx_hal_dma2d.o(i.HAL_DMA2D_ConfigLayer)
    i.HAL_DMA2D_IRQHandler                   0x08000614   Section        0  stm32f7xx_hal_dma2d.o(i.HAL_DMA2D_IRQHandler)
    i.HAL_DMA2D_Init                         0x08000730   Section        0  stm32f7xx_hal_dma2d.o(i.HAL_DMA2D_Init)
    i.HAL_DMA2D_LineEventCallback            0x0800078a   Section        0  stm32f7xx_hal_dma2d.o(i.HAL_DMA2D_LineEventCallback)
    i.HAL_DMA2D_MspInit                      0x0800078c   Section        0  stm32f7xx_hal_msp.o(i.HAL_DMA2D_MspInit)
    i.HAL_DMA_GetError                       0x080007c8   Section        0  stm32f7xx_hal_dma.o(i.HAL_DMA_GetError)
    i.HAL_DMA_Start_IT                       0x080007cc   Section        0  stm32f7xx_hal_dma.o(i.HAL_DMA_Start_IT)
    i.HAL_Delay                              0x08000848   Section        0  stm32f7xx_hal.o(i.HAL_Delay)
    i.HAL_FMC_MspInit                        0x0800086c   Section        0  stm32f7xx_hal_msp.o(i.HAL_FMC_MspInit)
    HAL_FMC_MspInit                          0x0800086d   Thumb Code   138  stm32f7xx_hal_msp.o(i.HAL_FMC_MspInit)
    i.HAL_GPIO_Init                          0x08000918   Section        0  stm32f7xx_hal_gpio.o(i.HAL_GPIO_Init)
    i.HAL_GPIO_ReadPin                       0x08000af0   Section        0  stm32f7xx_hal_gpio.o(i.HAL_GPIO_ReadPin)
    i.HAL_GPIO_WritePin                      0x08000afa   Section        0  stm32f7xx_hal_gpio.o(i.HAL_GPIO_WritePin)
    i.HAL_GetTick                            0x08000b04   Section        0  stm32f7xx_hal.o(i.HAL_GetTick)
    i.HAL_I2CEx_ConfigAnalogFilter           0x08000b10   Section        0  stm32f7xx_hal_i2c_ex.o(i.HAL_I2CEx_ConfigAnalogFilter)
    i.HAL_I2CEx_ConfigDigitalFilter          0x08000b68   Section        0  stm32f7xx_hal_i2c_ex.o(i.HAL_I2CEx_ConfigDigitalFilter)
    i.HAL_I2C_Init                           0x08000bbc   Section        0  stm32f7xx_hal_i2c.o(i.HAL_I2C_Init)
    i.HAL_I2C_Mem_Read                       0x08000c74   Section        0  stm32f7xx_hal_i2c.o(i.HAL_I2C_Mem_Read)
    i.HAL_I2C_Mem_Write                      0x08000de4   Section        0  stm32f7xx_hal_i2c.o(i.HAL_I2C_Mem_Write)
    i.HAL_I2C_MspInit                        0x08000f4c   Section        0  stm32f7xx_hal_msp.o(i.HAL_I2C_MspInit)
    i.HAL_IncTick                            0x08000f94   Section        0  stm32f7xx_hal.o(i.HAL_IncTick)
    i.HAL_Init                               0x08000fa4   Section        0  stm32f7xx_hal.o(i.HAL_Init)
    i.HAL_InitTick                           0x08000fbc   Section        0  stm32f7xx_hal.o(i.HAL_InitTick)
    i.HAL_LTDC_ConfigLayer                   0x08000ffc   Section        0  stm32f7xx_hal_ltdc.o(i.HAL_LTDC_ConfigLayer)
    i.HAL_LTDC_Init                          0x08001050   Section        0  stm32f7xx_hal_ltdc.o(i.HAL_LTDC_Init)
    i.HAL_LTDC_MspInit                       0x08001150   Section        0  stm32f7xx_hal_msp.o(i.HAL_LTDC_MspInit)
    i.HAL_LTDC_SetAddress                    0x080011f4   Section        0  stm32f7xx_hal_ltdc.o(i.HAL_LTDC_SetAddress)
    i.HAL_MPU_ConfigRegion                   0x08001238   Section        0  stm32f7xx_hal_cortex.o(i.HAL_MPU_ConfigRegion)
    i.HAL_MPU_Disable                        0x08001294   Section        0  stm32f7xx_hal_cortex.o(i.HAL_MPU_Disable)
    i.HAL_MPU_Enable                         0x080012b0   Section        0  stm32f7xx_hal_cortex.o(i.HAL_MPU_Enable)
    i.HAL_MspInit                            0x080012d4   Section        0  stm32f7xx_hal_msp.o(i.HAL_MspInit)
    i.HAL_NVIC_EnableIRQ                     0x0800132c   Section        0  stm32f7xx_hal_cortex.o(i.HAL_NVIC_EnableIRQ)
    i.HAL_NVIC_SetPriority                   0x08001344   Section        0  stm32f7xx_hal_cortex.o(i.HAL_NVIC_SetPriority)
    i.HAL_NVIC_SetPriorityGrouping           0x08001384   Section        0  stm32f7xx_hal_cortex.o(i.HAL_NVIC_SetPriorityGrouping)
    i.HAL_PWREx_EnableOverDrive              0x080013a8   Section        0  stm32f7xx_hal_pwr_ex.o(i.HAL_PWREx_EnableOverDrive)
    i.HAL_RCCEx_PeriphCLKConfig              0x08001414   Section        0  stm32f7xx_hal_rcc_ex.o(i.HAL_RCCEx_PeriphCLKConfig)
    i.HAL_RCC_ClockConfig                    0x08001910   Section        0  stm32f7xx_hal_rcc.o(i.HAL_RCC_ClockConfig)
    i.HAL_RCC_GetHCLKFreq                    0x08001a3c   Section        0  stm32f7xx_hal_rcc.o(i.HAL_RCC_GetHCLKFreq)
    i.HAL_RCC_GetSysClockFreq                0x08001a48   Section        0  stm32f7xx_hal_rcc.o(i.HAL_RCC_GetSysClockFreq)
    i.HAL_RCC_OscConfig                      0x08001aac   Section        0  stm32f7xx_hal_rcc.o(i.HAL_RCC_OscConfig)
    i.HAL_RNG_Init                           0x08001de4   Section        0  stm32f7xx_hal_rng.o(i.HAL_RNG_Init)
    i.HAL_RNG_MspInit                        0x08001e14   Section        0  stm32f7xx_hal_msp.o(i.HAL_RNG_MspInit)
    i.HAL_SDRAM_Init                         0x08001e3c   Section        0  stm32f7xx_hal_sdram.o(i.HAL_SDRAM_Init)
    i.HAL_SDRAM_MspInit                      0x08001e7e   Section        0  stm32f7xx_hal_msp.o(i.HAL_SDRAM_MspInit)
    i.HAL_SDRAM_ProgramRefreshRate           0x08001e82   Section        0  stm32f7xx_hal_sdram.o(i.HAL_SDRAM_ProgramRefreshRate)
    i.HAL_SDRAM_SendCommand                  0x08001ea4   Section        0  stm32f7xx_hal_sdram.o(i.HAL_SDRAM_SendCommand)
    i.HAL_SD_ConfigWideBusOperation          0x08001ed4   Section        0  stm32f7xx_hal_sd.o(i.HAL_SD_ConfigWideBusOperation)
    i.HAL_SD_ErrorCallback                   0x08001f4c   Section        0  stm32f7xx_hal_sd.o(i.HAL_SD_ErrorCallback)
    i.HAL_SD_GetCardCSD                      0x08001f4e   Section        0  stm32f7xx_hal_sd.o(i.HAL_SD_GetCardCSD)
    i.HAL_SD_GetCardInfo                     0x08002148   Section        0  stm32f7xx_hal_sd.o(i.HAL_SD_GetCardInfo)
    i.HAL_SD_GetCardState                    0x0800216c   Section        0  stm32f7xx_hal_sd.o(i.HAL_SD_GetCardState)
    i.HAL_SD_Init                            0x08002198   Section        0  stm32f7xx_hal_sd.o(i.HAL_SD_Init)
    i.HAL_SD_InitCard                        0x080021ce   Section        0  stm32f7xx_hal_sd.o(i.HAL_SD_InitCard)
    i.HAL_SD_MspInit                         0x0800222c   Section        0  stm32f7xx_hal_msp.o(i.HAL_SD_MspInit)
    i.HAL_SD_ReadBlocks_DMA                  0x08002284   Section        0  stm32f7xx_hal_sd.o(i.HAL_SD_ReadBlocks_DMA)
    i.HAL_SD_RxCpltCallback                  0x08002378   Section        0  stm32f7xx_hal_sd.o(i.HAL_SD_RxCpltCallback)
    i.HAL_SD_WriteBlocks_DMA                 0x0800237c   Section        0  stm32f7xx_hal_sd.o(i.HAL_SD_WriteBlocks_DMA)
    i.HAL_SYSTICK_CLKSourceConfig            0x08002474   Section        0  stm32f7xx_hal_cortex.o(i.HAL_SYSTICK_CLKSourceConfig)
    i.HAL_SYSTICK_Callback                   0x0800248c   Section        0  stm32f7xx_hal_cortex.o(i.HAL_SYSTICK_Callback)
    i.HAL_SYSTICK_Config                     0x0800248e   Section        0  stm32f7xx_hal_cortex.o(i.HAL_SYSTICK_Config)
    i.HAL_SYSTICK_IRQHandler                 0x080024b4   Section        0  stm32f7xx_hal_cortex.o(i.HAL_SYSTICK_IRQHandler)
    i.HardFault_Handler                      0x080024bc   Section        0  stm32f7xx_it.o(i.HardFault_Handler)
    i.I2C_Flush_TXDR                         0x080024be   Section        0  stm32f7xx_hal_i2c.o(i.I2C_Flush_TXDR)
    I2C_Flush_TXDR                           0x080024bf   Thumb Code    34  stm32f7xx_hal_i2c.o(i.I2C_Flush_TXDR)
    i.I2C_IsAcknowledgeFailed                0x080024e0   Section        0  stm32f7xx_hal_i2c.o(i.I2C_IsAcknowledgeFailed)
    I2C_IsAcknowledgeFailed                  0x080024e1   Thumb Code   120  stm32f7xx_hal_i2c.o(i.I2C_IsAcknowledgeFailed)
    i.I2C_RequestMemoryRead                  0x0800255c   Section        0  stm32f7xx_hal_i2c.o(i.I2C_RequestMemoryRead)
    I2C_RequestMemoryRead                    0x0800255d   Thumb Code   108  stm32f7xx_hal_i2c.o(i.I2C_RequestMemoryRead)
    i.I2C_RequestMemoryWrite                 0x080025cc   Section        0  stm32f7xx_hal_i2c.o(i.I2C_RequestMemoryWrite)
    I2C_RequestMemoryWrite                   0x080025cd   Thumb Code   108  stm32f7xx_hal_i2c.o(i.I2C_RequestMemoryWrite)
    i.I2C_TransferConfig                     0x0800263c   Section        0  stm32f7xx_hal_i2c.o(i.I2C_TransferConfig)
    I2C_TransferConfig                       0x0800263d   Thumb Code    40  stm32f7xx_hal_i2c.o(i.I2C_TransferConfig)
    i.I2C_WaitOnFlagUntilTimeout             0x08002668   Section        0  stm32f7xx_hal_i2c.o(i.I2C_WaitOnFlagUntilTimeout)
    I2C_WaitOnFlagUntilTimeout               0x08002669   Thumb Code    82  stm32f7xx_hal_i2c.o(i.I2C_WaitOnFlagUntilTimeout)
    i.I2C_WaitOnSTOPFlagUntilTimeout         0x080026ba   Section        0  stm32f7xx_hal_i2c.o(i.I2C_WaitOnSTOPFlagUntilTimeout)
    I2C_WaitOnSTOPFlagUntilTimeout           0x080026bb   Thumb Code    80  stm32f7xx_hal_i2c.o(i.I2C_WaitOnSTOPFlagUntilTimeout)
    i.I2C_WaitOnTXISFlagUntilTimeout         0x0800270a   Section        0  stm32f7xx_hal_i2c.o(i.I2C_WaitOnTXISFlagUntilTimeout)
    I2C_WaitOnTXISFlagUntilTimeout           0x0800270b   Thumb Code    84  stm32f7xx_hal_i2c.o(i.I2C_WaitOnTXISFlagUntilTimeout)
    i.LTDC_SetConfig                         0x0800275e   Section        0  stm32f7xx_hal_ltdc.o(i.LTDC_SetConfig)
    LTDC_SetConfig                           0x0800275f   Thumb Code   464  stm32f7xx_hal_ltdc.o(i.LTDC_SetConfig)
    i.MT48LC4M32B2_Init                      0x08002930   Section        0  mt48lc4m32b2.o(i.MT48LC4M32B2_Init)
    i.MX_DMA2D_Init                          0x080029d8   Section        0  main.o(i.MX_DMA2D_Init)
    MX_DMA2D_Init                            0x080029d9   Thumb Code    72  main.o(i.MX_DMA2D_Init)
    i.MX_FATFS_Init                          0x08002a28   Section        0  fatfs.o(i.MX_FATFS_Init)
    i.MX_FMC_Init                            0x08002a44   Section        0  main.o(i.MX_FMC_Init)
    MX_FMC_Init                              0x08002a45   Thumb Code    78  main.o(i.MX_FMC_Init)
    i.MX_GPIO_Init                           0x08002a9c   Section        0  main.o(i.MX_GPIO_Init)
    MX_GPIO_Init                             0x08002a9d   Thumb Code   270  main.o(i.MX_GPIO_Init)
    i.MX_I2C3_Init                           0x08002bb8   Section        0  main.o(i.MX_I2C3_Init)
    MX_I2C3_Init                             0x08002bb9   Thumb Code    66  main.o(i.MX_I2C3_Init)
    i.MX_LTDC_Init                           0x08002c08   Section        0  main.o(i.MX_LTDC_Init)
    MX_LTDC_Init                             0x08002c09   Thumb Code   144  main.o(i.MX_LTDC_Init)
    i.MemManage_Handler                      0x08002ca0   Section        0  stm32f7xx_it.o(i.MemManage_Handler)
    i.NMI_Handler                            0x08002ca2   Section        0  stm32f7xx_it.o(i.NMI_Handler)
    i.NVIC_SetPriority                       0x08002ca4   Section        0  stm32f7xx_hal_cortex.o(i.NVIC_SetPriority)
    NVIC_SetPriority                         0x08002ca5   Thumb Code    34  stm32f7xx_hal_cortex.o(i.NVIC_SetPriority)
    i.PendSV_Handler                         0x08002cc6   Section        0  stm32f7xx_it.o(i.PendSV_Handler)
    i.SDMMC_CmdAppCommand                    0x08002cc8   Section        0  stm32f7xx_ll_sdmmc.o(i.SDMMC_CmdAppCommand)
    i.SDMMC_CmdAppOperCommand                0x08002cfc   Section        0  stm32f7xx_ll_sdmmc.o(i.SDMMC_CmdAppOperCommand)
    i.SDMMC_CmdBlockLength                   0x08002d30   Section        0  stm32f7xx_ll_sdmmc.o(i.SDMMC_CmdBlockLength)
    i.SDMMC_CmdBusWidth                      0x08002d62   Section        0  stm32f7xx_ll_sdmmc.o(i.SDMMC_CmdBusWidth)
    i.SDMMC_CmdGoIdleState                   0x08002d94   Section        0  stm32f7xx_ll_sdmmc.o(i.SDMMC_CmdGoIdleState)
    i.SDMMC_CmdOperCond                      0x08002de4   Section        0  stm32f7xx_ll_sdmmc.o(i.SDMMC_CmdOperCond)
    i.SDMMC_CmdReadMultiBlock                0x08002e48   Section        0  stm32f7xx_ll_sdmmc.o(i.SDMMC_CmdReadMultiBlock)
    i.SDMMC_CmdReadSingleBlock               0x08002e7a   Section        0  stm32f7xx_ll_sdmmc.o(i.SDMMC_CmdReadSingleBlock)
    i.SDMMC_CmdSelDesel                      0x08002eac   Section        0  stm32f7xx_ll_sdmmc.o(i.SDMMC_CmdSelDesel)
    i.SDMMC_CmdSendCID                       0x08002edc   Section        0  stm32f7xx_ll_sdmmc.o(i.SDMMC_CmdSendCID)
    i.SDMMC_CmdSendCSD                       0x08002f06   Section        0  stm32f7xx_ll_sdmmc.o(i.SDMMC_CmdSendCSD)
    i.SDMMC_CmdSendSCR                       0x08002f34   Section        0  stm32f7xx_ll_sdmmc.o(i.SDMMC_CmdSendSCR)
    i.SDMMC_CmdSendStatus                    0x08002f64   Section        0  stm32f7xx_ll_sdmmc.o(i.SDMMC_CmdSendStatus)
    i.SDMMC_CmdSetRelAdd                     0x08002f96   Section        0  stm32f7xx_ll_sdmmc.o(i.SDMMC_CmdSetRelAdd)
    i.SDMMC_CmdStopTransfer                  0x08002fc8   Section        0  stm32f7xx_ll_sdmmc.o(i.SDMMC_CmdStopTransfer)
    i.SDMMC_CmdWriteMultiBlock               0x08002ffc   Section        0  stm32f7xx_ll_sdmmc.o(i.SDMMC_CmdWriteMultiBlock)
    i.SDMMC_CmdWriteSingleBlock              0x0800302e   Section        0  stm32f7xx_ll_sdmmc.o(i.SDMMC_CmdWriteSingleBlock)
    i.SDMMC_ConfigData                       0x08003060   Section        0  stm32f7xx_ll_sdmmc.o(i.SDMMC_ConfigData)
    i.SDMMC_GetCmdResp1                      0x08003088   Section        0  stm32f7xx_ll_sdmmc.o(i.SDMMC_GetCmdResp1)
    SDMMC_GetCmdResp1                        0x08003089   Thumb Code   276  stm32f7xx_ll_sdmmc.o(i.SDMMC_GetCmdResp1)
    i.SDMMC_GetCmdResp2                      0x080031a4   Section        0  stm32f7xx_ll_sdmmc.o(i.SDMMC_GetCmdResp2)
    SDMMC_GetCmdResp2                        0x080031a5   Thumb Code    74  stm32f7xx_ll_sdmmc.o(i.SDMMC_GetCmdResp2)
    i.SDMMC_GetCmdResp3                      0x080031f4   Section        0  stm32f7xx_ll_sdmmc.o(i.SDMMC_GetCmdResp3)
    SDMMC_GetCmdResp3                        0x080031f5   Thumb Code    60  stm32f7xx_ll_sdmmc.o(i.SDMMC_GetCmdResp3)
    i.SDMMC_GetCmdResp6                      0x08003234   Section        0  stm32f7xx_ll_sdmmc.o(i.SDMMC_GetCmdResp6)
    SDMMC_GetCmdResp6                        0x08003235   Thumb Code   128  stm32f7xx_ll_sdmmc.o(i.SDMMC_GetCmdResp6)
    i.SDMMC_GetPowerState                    0x080032b8   Section        0  stm32f7xx_ll_sdmmc.o(i.SDMMC_GetPowerState)
    i.SDMMC_GetResponse                      0x080032c0   Section        0  stm32f7xx_ll_sdmmc.o(i.SDMMC_GetResponse)
    i.SDMMC_Init                             0x080032cc   Section        0  stm32f7xx_ll_sdmmc.o(i.SDMMC_Init)
    i.SDMMC_PowerState_ON                    0x080032ee   Section        0  stm32f7xx_ll_sdmmc.o(i.SDMMC_PowerState_ON)
    i.SDMMC_ReadFIFO                         0x080032f6   Section        0  stm32f7xx_ll_sdmmc.o(i.SDMMC_ReadFIFO)
    i.SDMMC_SendCommand                      0x080032fc   Section        0  stm32f7xx_ll_sdmmc.o(i.SDMMC_SendCommand)
    i.SD_CheckStatus                         0x08003320   Section        0  sd_diskio.o(i.SD_CheckStatus)
    SD_CheckStatus                           0x08003321   Thumb Code    26  sd_diskio.o(i.SD_CheckStatus)
    i.SD_DMAError                            0x08003340   Section        0  stm32f7xx_hal_sd.o(i.SD_DMAError)
    SD_DMAError                              0x08003341   Thumb Code    94  stm32f7xx_hal_sd.o(i.SD_DMAError)
    i.SD_DMAReceiveCplt                      0x0800339e   Section        0  stm32f7xx_hal_sd.o(i.SD_DMAReceiveCplt)
    SD_DMAReceiveCplt                        0x0800339f   Thumb Code    62  stm32f7xx_hal_sd.o(i.SD_DMAReceiveCplt)
    i.SD_DMATransmitCplt                     0x080033dc   Section        0  stm32f7xx_hal_sd.o(i.SD_DMATransmitCplt)
    SD_DMATransmitCplt                       0x080033dd   Thumb Code    14  stm32f7xx_hal_sd.o(i.SD_DMATransmitCplt)
    i.SD_FindSCR                             0x080033ea   Section        0  stm32f7xx_hal_sd.o(i.SD_FindSCR)
    SD_FindSCR                               0x080033eb   Thumb Code   214  stm32f7xx_hal_sd.o(i.SD_FindSCR)
    i.SD_InitCard                            0x080034c0   Section        0  stm32f7xx_hal_sd.o(i.SD_InitCard)
    SD_InitCard                              0x080034c1   Thumb Code   230  stm32f7xx_hal_sd.o(i.SD_InitCard)
    i.SD_PowerON                             0x080035a6   Section        0  stm32f7xx_hal_sd.o(i.SD_PowerON)
    SD_PowerON                               0x080035a7   Thumb Code   166  stm32f7xx_hal_sd.o(i.SD_PowerON)
    i.SD_WideBus_Disable                     0x0800364c   Section        0  stm32f7xx_hal_sd.o(i.SD_WideBus_Disable)
    SD_WideBus_Disable                       0x0800364d   Thumb Code    78  stm32f7xx_hal_sd.o(i.SD_WideBus_Disable)
    i.SD_WideBus_Enable                      0x0800369a   Section        0  stm32f7xx_hal_sd.o(i.SD_WideBus_Enable)
    SD_WideBus_Enable                        0x0800369b   Thumb Code    78  stm32f7xx_hal_sd.o(i.SD_WideBus_Enable)
    i.SD_initialize                          0x080036e8   Section        0  sd_diskio.o(i.SD_initialize)
    i.SD_ioctl                               0x08003708   Section        0  sd_diskio.o(i.SD_ioctl)
    i.SD_read                                0x08003760   Section        0  sd_diskio.o(i.SD_read)
    i.SD_status                              0x080037cc   Section        0  sd_diskio.o(i.SD_status)
    i.SD_write                               0x080037d0   Section        0  sd_diskio.o(i.SD_write)
    i.SVC_Handler                            0x0800383c   Section        0  stm32f7xx_it.o(i.SVC_Handler)
    i.SysTick_Handler                        0x0800383e   Section        0  stm32f7xx_it.o(i.SysTick_Handler)
    i.SystemClock_Config                     0x0800384c   Section        0  main.o(i.SystemClock_Config)
    i.SystemInit                             0x0800391c   Section        0  system_stm32f7xx.o(i.SystemInit)
    i.TFT_DisplayString                      0x08003970   Section        0  ltdc.o(i.TFT_DisplayString)
    i.TFT_DrawChar                           0x08003a04   Section        0  ltdc.o(i.TFT_DrawChar)
    i.TFT_DrawLine                           0x08003ab4   Section        0  ltdc.o(i.TFT_DrawLine)
    i.TFT_DrawPixel                          0x08003b48   Section        0  ltdc.o(i.TFT_DrawPixel)
    i.TFT_FillRectangle                      0x08003b60   Section        0  ltdc.o(i.TFT_FillRectangle)
    i.TFT_FillScreen                         0x08003ba0   Section        0  ltdc.o(i.TFT_FillScreen)
    i.TFT_SetBackColor                       0x08003bc0   Section        0  ltdc.o(i.TFT_SetBackColor)
    i.TFT_SetFont                            0x08003bcc   Section        0  ltdc.o(i.TFT_SetFont)
    i.TFT_SetTextColor                       0x08003bd8   Section        0  ltdc.o(i.TFT_SetTextColor)
    i.TS_DetectTouch                         0x08003be4   Section        0  ft5336.o(i.TS_DetectTouch)
    i.TS_GetState                            0x08003c24   Section        0  ft5336.o(i.TS_GetState)
    i.TS_GetTouchInfo                        0x08003d64   Section        0  ft5336.o(i.TS_GetTouchInfo)
    i.TS_GetXY                               0x08003e30   Section        0  ft5336.o(i.TS_GetXY)
    i.TS_Get_GestureId                       0x08003f50   Section        0  ft5336.o(i.TS_Get_GestureId)
    i.TS_IO_Read                             0x08003fa8   Section        0  ft5336.o(i.TS_IO_Read)
    i.TS_IO_Write                            0x08003fd4   Section        0  ft5336.o(i.TS_IO_Write)
    i.Touch_Ini                              0x08003ff8   Section        0  ft5336.o(i.Touch_Ini)
    i.Touch_ReadID                           0x08004034   Section        0  ft5336.o(i.Touch_ReadID)
    i.UsageFault_Handler                     0x0800406a   Section        0  stm32f7xx_it.o(i.UsageFault_Handler)
    i.__0sprintf$6                           0x0800406c   Section        0  printf6.o(i.__0sprintf$6)
    i.__scatterload_copy                     0x08004094   Section       14  handlers.o(i.__scatterload_copy)
    i.__scatterload_null                     0x080040a2   Section        2  handlers.o(i.__scatterload_null)
    i.__scatterload_zeroinit                 0x080040a4   Section       14  handlers.o(i.__scatterload_zeroinit)
    i._printf_core                           0x080040b4   Section        0  printf6.o(i._printf_core)
    _printf_core                             0x080040b5   Thumb Code   748  printf6.o(i._printf_core)
    i._printf_post_padding                   0x080043a4   Section        0  printf6.o(i._printf_post_padding)
    _printf_post_padding                     0x080043a5   Thumb Code    36  printf6.o(i._printf_post_padding)
    i._printf_pre_padding                    0x080043c8   Section        0  printf6.o(i._printf_pre_padding)
    _printf_pre_padding                      0x080043c9   Thumb Code    46  printf6.o(i._printf_pre_padding)
    i._sputc                                 0x080043f6   Section        0  printf6.o(i._sputc)
    _sputc                                   0x080043f7   Thumb Code    10  printf6.o(i._sputc)
    i.ft5336_TS_GetGestureID                 0x08004400   Section        0  ft5336.o(i.ft5336_TS_GetGestureID)
    i.main                                   0x08004420   Section        0  main.o(i.main)
    .constdata                               0x080048c8   Section       20  sd_diskio.o(.constdata)
    .constdata                               0x080048dc   Section     3040  font16.o(.constdata)
    .constdata                               0x080054bc   Section     3800  font20.o(.constdata)
    .constdata                               0x08006394   Section       16  system_stm32f7xx.o(.constdata)
    .data                                    0x20000000   Section       12  main.o(.data)
    .data                                    0x2000000c   Section        5  fatfs.o(.data)
    .data                                    0x20000014   Section        8  stm32f7xx_hal_msp.o(.data)
    FMC_Initialized                          0x20000014   Data           4  stm32f7xx_hal_msp.o(.data)
    FMC_DeInitialized                        0x20000018   Data           4  stm32f7xx_hal_msp.o(.data)
    .data                                    0x2000001c   Section       12  sd_diskio.o(.data)
    Stat                                     0x2000001c   Data           1  sd_diskio.o(.data)
    WriteStatus                              0x20000020   Data           4  sd_diskio.o(.data)
    ReadStatus                               0x20000024   Data           4  sd_diskio.o(.data)
    .data                                    0x20000028   Section        8  font16.o(.data)
    .data                                    0x20000030   Section        8  font20.o(.data)
    .data                                    0x20000038   Section        8  ltdc.o(.data)
    .data                                    0x20000040   Section        1  mt48lc4m32b2.o(.data)
    .data                                    0x20000042   Section        7  ft5336.o(.data)
    tsOrientation                            0x20000042   Data           1  ft5336.o(.data)
    coord                                    0x20000044   Data           2  ft5336.o(.data)
    .data                                    0x2000004c   Section        4  system_stm32f7xx.o(.data)
    .data                                    0x20000050   Section       12  stm32f7xx_hal.o(.data)
    .bss                                     0x2000005c   Section      620  main.o(.bss)
    tscnt                                    0x2000005c   Data          20  main.o(.bss)
    xstart                                   0x20000070   Data          10  main.o(.bss)
    ystart                                   0x2000007a   Data          10  main.o(.bss)
    TS_State                                 0x200000a4   Data          44  main.o(.bss)
    .bss                                     0x200002c8   Section       12  ltdc.o(.bss)
    .bss                                     0x200002d4   Section       16  mt48lc4m32b2.o(.bss)
    .bss                                     0x200002e4   Section       40  ft5336.o(.bss)
    _x                                       0x200002e4   Data          20  ft5336.o(.bss)
    _y                                       0x200002f8   Data          20  ft5336.o(.bss)
    .bss                                     0x2000030c   Section       12  ff_gen_drv.o(.bss)
    STACK                                    0x20000318   Section    16384  startup_stm32f746xx.o(STACK)

    Global Symbols

    Symbol Name                              Value     Ov Type        Size  Object(Section)

    BuildAttributes$$THM_ISAv4$E$P$D$K$B$S$7EM$VFPi5$EXTD16$VFPS$VFMA$PE$PLD8$A:L22UL41UL21$X:L11$S22US41US21$IEEE1$IW$USESV6$~STKCKD$USESV7$~SHL$OSPACE$ROPI$EBA8$MICROLIB$REQ8$PRES8$EABIv2 0x00000000   Number         0  anon$$obj.o ABSOLUTE
    __ARM_use_no_argv                        0x00000000   Number         0  main.o ABSOLUTE
    _printf_a                                0x00000000   Number         0  stubs.o ABSOLUTE
    _printf_c                                0x00000000   Number         0  stubs.o ABSOLUTE
    _printf_charcount                        0x00000000   Number         0  stubs.o ABSOLUTE
    _printf_d                                0x00000000   Number         0  stubs.o ABSOLUTE
    _printf_e                                0x00000000   Number         0  stubs.o ABSOLUTE
    _printf_f                                0x00000000   Number         0  stubs.o ABSOLUTE
    _printf_flags                            0x00000000   Number         0  stubs.o ABSOLUTE
    _printf_fp_dec                           0x00000000   Number         0  stubs.o ABSOLUTE
    _printf_fp_hex                           0x00000000   Number         0  stubs.o ABSOLUTE
    _printf_g                                0x00000000   Number         0  stubs.o ABSOLUTE
    _printf_i                                0x00000000   Number         0  stubs.o ABSOLUTE
    _printf_int_dec                          0x00000000   Number         0  stubs.o ABSOLUTE
    _printf_l                                0x00000000   Number         0  stubs.o ABSOLUTE
    _printf_lc                               0x00000000   Number         0  stubs.o ABSOLUTE
    _printf_ll                               0x00000000   Number         0  stubs.o ABSOLUTE
    _printf_lld                              0x00000000   Number         0  stubs.o ABSOLUTE
    _printf_lli                              0x00000000   Number         0  stubs.o ABSOLUTE
    _printf_llo                              0x00000000   Number         0  stubs.o ABSOLUTE
    _printf_llu                              0x00000000   Number         0  stubs.o ABSOLUTE
    _printf_llx                              0x00000000   Number         0  stubs.o ABSOLUTE
    _printf_longlong_dec                     0x00000000   Number         0  stubs.o ABSOLUTE
    _printf_longlong_hex                     0x00000000   Number         0  stubs.o ABSOLUTE
    _printf_longlong_oct                     0x00000000   Number         0  stubs.o ABSOLUTE
    _printf_ls                               0x00000000   Number         0  stubs.o ABSOLUTE
    _printf_mbtowc                           0x00000000   Number         0  stubs.o ABSOLUTE
    _printf_n                                0x00000000   Number         0  stubs.o ABSOLUTE
    _printf_o                                0x00000000   Number         0  stubs.o ABSOLUTE
    _printf_p                                0x00000000   Number         0  stubs.o ABSOLUTE
    _printf_percent                          0x00000000   Number         0  stubs.o ABSOLUTE
    _printf_pre_padding                      0x00000000   Number         0  stubs.o ABSOLUTE
    _printf_return_value                     0x00000000   Number         0  stubs.o ABSOLUTE
    _printf_s                                0x00000000   Number         0  stubs.o ABSOLUTE
    _printf_sizespec                         0x00000000   Number         0  stubs.o ABSOLUTE
    _printf_str                              0x00000000   Number         0  stubs.o ABSOLUTE
    _printf_truncate_signed                  0x00000000   Number         0  stubs.o ABSOLUTE
    _printf_truncate_unsigned                0x00000000   Number         0  stubs.o ABSOLUTE
    _printf_u                                0x00000000   Number         0  stubs.o ABSOLUTE
    _printf_wc                               0x00000000   Number         0  stubs.o ABSOLUTE
    _printf_wctomb                           0x00000000   Number         0  stubs.o ABSOLUTE
    _printf_widthprec                        0x00000000   Number         0  stubs.o ABSOLUTE
    _printf_x                                0x00000000   Number         0  stubs.o ABSOLUTE
    __cpp_initialize__aeabi_                  - Undefined Weak Reference
    __cxa_finalize                            - Undefined Weak Reference
    __decompress                              - Undefined Weak Reference
    _clock_init                               - Undefined Weak Reference
    _microlib_exit                            - Undefined Weak Reference
    __Vectors_Size                           0x000001c8   Number         0  startup_stm32f746xx.o ABSOLUTE
    __Vectors                                0x08000000   Data           4  startup_stm32f746xx.o(RESET)
    __Vectors_End                            0x080001c8   Data           0  startup_stm32f746xx.o(RESET)
    __main                                   0x080001c9   Thumb Code     0  entry.o(.ARM.Collect$$$$00000000)
    _main_stk                                0x080001c9   Thumb Code     0  entry2.o(.ARM.Collect$$$$00000001)
    _main_scatterload                        0x080001cd   Thumb Code     0  entry5.o(.ARM.Collect$$$$00000004)
    __main_after_scatterload                 0x080001d1   Thumb Code     0  entry5.o(.ARM.Collect$$$$00000004)
    _main_clock                              0x080001d1   Thumb Code     0  entry7b.o(.ARM.Collect$$$$00000008)
    _main_cpp_init                           0x080001d1   Thumb Code     0  entry8b.o(.ARM.Collect$$$$0000000A)
    _main_init                               0x080001d1   Thumb Code     0  entry9a.o(.ARM.Collect$$$$0000000B)
    __rt_final_cpp                           0x080001d9   Thumb Code     0  entry10a.o(.ARM.Collect$$$$0000000D)
    __rt_final_exit                          0x080001d9   Thumb Code     0  entry11a.o(.ARM.Collect$$$$0000000F)
    Reset_Handler                            0x080001dd   Thumb Code     8  startup_stm32f746xx.o(.text)
    ADC_IRQHandler                           0x080001f7   Thumb Code     0  startup_stm32f746xx.o(.text)
    CAN1_RX0_IRQHandler                      0x080001f7   Thumb Code     0  startup_stm32f746xx.o(.text)
    CAN1_RX1_IRQHandler                      0x080001f7   Thumb Code     0  startup_stm32f746xx.o(.text)
    CAN1_SCE_IRQHandler                      0x080001f7   Thumb Code     0  startup_stm32f746xx.o(.text)
    CAN1_TX_IRQHandler                       0x080001f7   Thumb Code     0  startup_stm32f746xx.o(.text)
    CAN2_RX0_IRQHandler                      0x080001f7   Thumb Code     0  startup_stm32f746xx.o(.text)
    CAN2_RX1_IRQHandler                      0x080001f7   Thumb Code     0  startup_stm32f746xx.o(.text)
    CAN2_SCE_IRQHandler                      0x080001f7   Thumb Code     0  startup_stm32f746xx.o(.text)
    CAN2_TX_IRQHandler                       0x080001f7   Thumb Code     0  startup_stm32f746xx.o(.text)
    CEC_IRQHandler                           0x080001f7   Thumb Code     0  startup_stm32f746xx.o(.text)
    DCMI_IRQHandler                          0x080001f7   Thumb Code     0  startup_stm32f746xx.o(.text)
    DMA1_Stream0_IRQHandler                  0x080001f7   Thumb Code     0  startup_stm32f746xx.o(.text)
    DMA1_Stream1_IRQHandler                  0x080001f7   Thumb Code     0  startup_stm32f746xx.o(.text)
    DMA1_Stream2_IRQHandler                  0x080001f7   Thumb Code     0  startup_stm32f746xx.o(.text)
    DMA1_Stream3_IRQHandler                  0x080001f7   Thumb Code     0  startup_stm32f746xx.o(.text)
    DMA1_Stream4_IRQHandler                  0x080001f7   Thumb Code     0  startup_stm32f746xx.o(.text)
    DMA1_Stream5_IRQHandler                  0x080001f7   Thumb Code     0  startup_stm32f746xx.o(.text)
    DMA1_Stream6_IRQHandler                  0x080001f7   Thumb Code     0  startup_stm32f746xx.o(.text)
    DMA1_Stream7_IRQHandler                  0x080001f7   Thumb Code     0  startup_stm32f746xx.o(.text)
    DMA2_Stream0_IRQHandler                  0x080001f7   Thumb Code     0  startup_stm32f746xx.o(.text)
    DMA2_Stream1_IRQHandler                  0x080001f7   Thumb Code     0  startup_stm32f746xx.o(.text)
    DMA2_Stream2_IRQHandler                  0x080001f7   Thumb Code     0  startup_stm32f746xx.o(.text)
    DMA2_Stream3_IRQHandler                  0x080001f7   Thumb Code     0  startup_stm32f746xx.o(.text)
    DMA2_Stream4_IRQHandler                  0x080001f7   Thumb Code     0  startup_stm32f746xx.o(.text)
    DMA2_Stream5_IRQHandler                  0x080001f7   Thumb Code     0  startup_stm32f746xx.o(.text)
    DMA2_Stream6_IRQHandler                  0x080001f7   Thumb Code     0  startup_stm32f746xx.o(.text)
    DMA2_Stream7_IRQHandler                  0x080001f7   Thumb Code     0  startup_stm32f746xx.o(.text)
    ETH_IRQHandler                           0x080001f7   Thumb Code     0  startup_stm32f746xx.o(.text)
    ETH_WKUP_IRQHandler                      0x080001f7   Thumb Code     0  startup_stm32f746xx.o(.text)
    EXTI0_IRQHandler                         0x080001f7   Thumb Code     0  startup_stm32f746xx.o(.text)
    EXTI15_10_IRQHandler                     0x080001f7   Thumb Code     0  startup_stm32f746xx.o(.text)
    EXTI1_IRQHandler                         0x080001f7   Thumb Code     0  startup_stm32f746xx.o(.text)
    EXTI2_IRQHandler                         0x080001f7   Thumb Code     0  startup_stm32f746xx.o(.text)
    EXTI3_IRQHandler                         0x080001f7   Thumb Code     0  startup_stm32f746xx.o(.text)
    EXTI4_IRQHandler                         0x080001f7   Thumb Code     0  startup_stm32f746xx.o(.text)
    EXTI9_5_IRQHandler                       0x080001f7   Thumb Code     0  startup_stm32f746xx.o(.text)
    FLASH_IRQHandler                         0x080001f7   Thumb Code     0  startup_stm32f746xx.o(.text)
    FMC_IRQHandler                           0x080001f7   Thumb Code     0  startup_stm32f746xx.o(.text)
    FPU_IRQHandler                           0x080001f7   Thumb Code     0  startup_stm32f746xx.o(.text)
    I2C1_ER_IRQHandler                       0x080001f7   Thumb Code     0  startup_stm32f746xx.o(.text)
    I2C1_EV_IRQHandler                       0x080001f7   Thumb Code     0  startup_stm32f746xx.o(.text)
    I2C2_ER_IRQHandler                       0x080001f7   Thumb Code     0  startup_stm32f746xx.o(.text)
    I2C2_EV_IRQHandler                       0x080001f7   Thumb Code     0  startup_stm32f746xx.o(.text)
    I2C3_ER_IRQHandler                       0x080001f7   Thumb Code     0  startup_stm32f746xx.o(.text)
    I2C3_EV_IRQHandler                       0x080001f7   Thumb Code     0  startup_stm32f746xx.o(.text)
    I2C4_ER_IRQHandler                       0x080001f7   Thumb Code     0  startup_stm32f746xx.o(.text)
    I2C4_EV_IRQHandler                       0x080001f7   Thumb Code     0  startup_stm32f746xx.o(.text)
    LPTIM1_IRQHandler                        0x080001f7   Thumb Code     0  startup_stm32f746xx.o(.text)
    LTDC_ER_IRQHandler                       0x080001f7   Thumb Code     0  startup_stm32f746xx.o(.text)
    LTDC_IRQHandler                          0x080001f7   Thumb Code     0  startup_stm32f746xx.o(.text)
    OTG_FS_IRQHandler                        0x080001f7   Thumb Code     0  startup_stm32f746xx.o(.text)
    OTG_FS_WKUP_IRQHandler                   0x080001f7   Thumb Code     0  startup_stm32f746xx.o(.text)
    OTG_HS_EP1_IN_IRQHandler                 0x080001f7   Thumb Code     0  startup_stm32f746xx.o(.text)
    OTG_HS_EP1_OUT_IRQHandler                0x080001f7   Thumb Code     0  startup_stm32f746xx.o(.text)
    OTG_HS_IRQHandler                        0x080001f7   Thumb Code     0  startup_stm32f746xx.o(.text)
    OTG_HS_WKUP_IRQHandler                   0x080001f7   Thumb Code     0  startup_stm32f746xx.o(.text)
    PVD_IRQHandler                           0x080001f7   Thumb Code     0  startup_stm32f746xx.o(.text)
    QUADSPI_IRQHandler                       0x080001f7   Thumb Code     0  startup_stm32f746xx.o(.text)
    RCC_IRQHandler                           0x080001f7   Thumb Code     0  startup_stm32f746xx.o(.text)
    RNG_IRQHandler                           0x080001f7   Thumb Code     0  startup_stm32f746xx.o(.text)
    RTC_Alarm_IRQHandler                     0x080001f7   Thumb Code     0  startup_stm32f746xx.o(.text)
    RTC_WKUP_IRQHandler                      0x080001f7   Thumb Code     0  startup_stm32f746xx.o(.text)
    SAI1_IRQHandler                          0x080001f7   Thumb Code     0  startup_stm32f746xx.o(.text)
    SAI2_IRQHandler                          0x080001f7   Thumb Code     0  startup_stm32f746xx.o(.text)
    SDMMC1_IRQHandler                        0x080001f7   Thumb Code     0  startup_stm32f746xx.o(.text)
    SPDIF_RX_IRQHandler                      0x080001f7   Thumb Code     0  startup_stm32f746xx.o(.text)
    SPI1_IRQHandler                          0x080001f7   Thumb Code     0  startup_stm32f746xx.o(.text)
    SPI2_IRQHandler                          0x080001f7   Thumb Code     0  startup_stm32f746xx.o(.text)
    SPI3_IRQHandler                          0x080001f7   Thumb Code     0  startup_stm32f746xx.o(.text)
    SPI4_IRQHandler                          0x080001f7   Thumb Code     0  startup_stm32f746xx.o(.text)
    SPI5_IRQHandler                          0x080001f7   Thumb Code     0  startup_stm32f746xx.o(.text)
    SPI6_IRQHandler                          0x080001f7   Thumb Code     0  startup_stm32f746xx.o(.text)
    TAMP_STAMP_IRQHandler                    0x080001f7   Thumb Code     0  startup_stm32f746xx.o(.text)
    TIM1_BRK_TIM9_IRQHandler                 0x080001f7   Thumb Code     0  startup_stm32f746xx.o(.text)
    TIM1_CC_IRQHandler                       0x080001f7   Thumb Code     0  startup_stm32f746xx.o(.text)
    TIM1_TRG_COM_TIM11_IRQHandler            0x080001f7   Thumb Code     0  startup_stm32f746xx.o(.text)
    TIM1_UP_TIM10_IRQHandler                 0x080001f7   Thumb Code     0  startup_stm32f746xx.o(.text)
    TIM2_IRQHandler                          0x080001f7   Thumb Code     0  startup_stm32f746xx.o(.text)
    TIM3_IRQHandler                          0x080001f7   Thumb Code     0  startup_stm32f746xx.o(.text)
    TIM4_IRQHandler                          0x080001f7   Thumb Code     0  startup_stm32f746xx.o(.text)
    TIM5_IRQHandler                          0x080001f7   Thumb Code     0  startup_stm32f746xx.o(.text)
    TIM6_DAC_IRQHandler                      0x080001f7   Thumb Code     0  startup_stm32f746xx.o(.text)
    TIM7_IRQHandler                          0x080001f7   Thumb Code     0  startup_stm32f746xx.o(.text)
    TIM8_BRK_TIM12_IRQHandler                0x080001f7   Thumb Code     0  startup_stm32f746xx.o(.text)
    TIM8_CC_IRQHandler                       0x080001f7   Thumb Code     0  startup_stm32f746xx.o(.text)
    TIM8_TRG_COM_TIM14_IRQHandler            0x080001f7   Thumb Code     0  startup_stm32f746xx.o(.text)
    TIM8_UP_TIM13_IRQHandler                 0x080001f7   Thumb Code     0  startup_stm32f746xx.o(.text)
    UART4_IRQHandler                         0x080001f7   Thumb Code     0  startup_stm32f746xx.o(.text)
    UART5_IRQHandler                         0x080001f7   Thumb Code     0  startup_stm32f746xx.o(.text)
    UART7_IRQHandler                         0x080001f7   Thumb Code     0  startup_stm32f746xx.o(.text)
    UART8_IRQHandler                         0x080001f7   Thumb Code     0  startup_stm32f746xx.o(.text)
    USART1_IRQHandler                        0x080001f7   Thumb Code     0  startup_stm32f746xx.o(.text)
    USART2_IRQHandler                        0x080001f7   Thumb Code     0  startup_stm32f746xx.o(.text)
    USART3_IRQHandler                        0x080001f7   Thumb Code     0  startup_stm32f746xx.o(.text)
    USART6_IRQHandler                        0x080001f7   Thumb Code     0  startup_stm32f746xx.o(.text)
    WWDG_IRQHandler                          0x080001f7   Thumb Code     0  startup_stm32f746xx.o(.text)
    __aeabi_uldivmod                         0x08000201   Thumb Code    98  uldiv.o(.text)
    __aeabi_memcpy                           0x08000263   Thumb Code    36  memcpya.o(.text)
    __aeabi_memcpy4                          0x08000263   Thumb Code     0  memcpya.o(.text)
    __aeabi_memcpy8                          0x08000263   Thumb Code     0  memcpya.o(.text)
    __aeabi_uidiv                            0x08000287   Thumb Code     0  uidiv.o(.text)
    __aeabi_uidivmod                         0x08000287   Thumb Code    44  uidiv.o(.text)
    __aeabi_llsl                             0x080002b3   Thumb Code    30  llshl.o(.text)
    _ll_shift_l                              0x080002b3   Thumb Code     0  llshl.o(.text)
    __aeabi_llsr                             0x080002d1   Thumb Code    32  llushr.o(.text)
    _ll_ushift_r                             0x080002d1   Thumb Code     0  llushr.o(.text)
    __scatterload                            0x080002f1   Thumb Code    28  init.o(.text)
    __scatterload_rt2                        0x080002f1   Thumb Code     0  init.o(.text)
    BSP_SD_GetCardInfo                       0x08000315   Thumb Code     8  bsp_driver_sd.o(i.BSP_SD_GetCardInfo)
    BSP_SD_GetCardState                      0x08000321   Thumb Code    20  bsp_driver_sd.o(i.BSP_SD_GetCardState)
    BSP_SD_Init                              0x08000339   Thumb Code    48  bsp_driver_sd.o(i.BSP_SD_Init)
    BSP_SD_ReadBlocks_DMA                    0x0800036d   Thumb Code    24  bsp_driver_sd.o(i.BSP_SD_ReadBlocks_DMA)
    BSP_SD_WriteBlocks_DMA                   0x08000389   Thumb Code    24  bsp_driver_sd.o(i.BSP_SD_WriteBlocks_DMA)
    BusFault_Handler                         0x080003a5   Thumb Code     2  stm32f7xx_it.o(i.BusFault_Handler)
    CheckForUserInput                        0x080003a9   Thumb Code    42  main.o(i.CheckForUserInput)
    DMA2D_IRQHandler                         0x080003d9   Thumb Code     6  stm32f7xx_it.o(i.DMA2D_IRQHandler)
    DebugMon_Handler                         0x0800040d   Thumb Code     2  stm32f7xx_it.o(i.DebugMon_Handler)
    FATFS_LinkDriver                         0x0800040f   Thumb Code     6  ff_gen_drv.o(i.FATFS_LinkDriver)
    FATFS_LinkDriverEx                       0x08000415   Thumb Code    58  ff_gen_drv.o(i.FATFS_LinkDriverEx)
    FMC_SDRAM_Init                           0x08000455   Thumb Code    94  stm32f7xx_ll_fmc.o(i.FMC_SDRAM_Init)
    FMC_SDRAM_ProgramRefreshRate             0x080004b3   Thumb Code    12  stm32f7xx_ll_fmc.o(i.FMC_SDRAM_ProgramRefreshRate)
    FMC_SDRAM_SendCommand                    0x080004bf   Thumb Code    32  stm32f7xx_ll_fmc.o(i.FMC_SDRAM_SendCommand)
    FMC_SDRAM_Timing_Init                    0x080004e1   Thumb Code   134  stm32f7xx_ll_fmc.o(i.FMC_SDRAM_Timing_Init)
    HAL_DMA2D_CLUTLoadingCpltCallback        0x0800056d   Thumb Code     2  stm32f7xx_hal_dma2d.o(i.HAL_DMA2D_CLUTLoadingCpltCallback)
    HAL_DMA2D_ConfigLayer                    0x08000571   Thumb Code   158  stm32f7xx_hal_dma2d.o(i.HAL_DMA2D_ConfigLayer)
    HAL_DMA2D_IRQHandler                     0x08000615   Thumb Code   284  stm32f7xx_hal_dma2d.o(i.HAL_DMA2D_IRQHandler)
    HAL_DMA2D_Init                           0x08000731   Thumb Code    90  stm32f7xx_hal_dma2d.o(i.HAL_DMA2D_Init)
    HAL_DMA2D_LineEventCallback              0x0800078b   Thumb Code     2  stm32f7xx_hal_dma2d.o(i.HAL_DMA2D_LineEventCallback)
    HAL_DMA2D_MspInit                        0x0800078d   Thumb Code    50  stm32f7xx_hal_msp.o(i.HAL_DMA2D_MspInit)
    HAL_DMA_GetError                         0x080007c9   Thumb Code     4  stm32f7xx_hal_dma.o(i.HAL_DMA_GetError)
    HAL_DMA_Start_IT                         0x080007cd   Thumb Code   122  stm32f7xx_hal_dma.o(i.HAL_DMA_Start_IT)
    HAL_Delay                                0x08000849   Thumb Code    32  stm32f7xx_hal.o(i.HAL_Delay)
    HAL_GPIO_Init                            0x08000919   Thumb Code   418  stm32f7xx_hal_gpio.o(i.HAL_GPIO_Init)
    HAL_GPIO_ReadPin                         0x08000af1   Thumb Code    10  stm32f7xx_hal_gpio.o(i.HAL_GPIO_ReadPin)
    HAL_GPIO_WritePin                        0x08000afb   Thumb Code    10  stm32f7xx_hal_gpio.o(i.HAL_GPIO_WritePin)
    HAL_GetTick                              0x08000b05   Thumb Code     6  stm32f7xx_hal.o(i.HAL_GetTick)
    HAL_I2CEx_ConfigAnalogFilter             0x08000b11   Thumb Code    88  stm32f7xx_hal_i2c_ex.o(i.HAL_I2CEx_ConfigAnalogFilter)
    HAL_I2CEx_ConfigDigitalFilter            0x08000b69   Thumb Code    84  stm32f7xx_hal_i2c_ex.o(i.HAL_I2CEx_ConfigDigitalFilter)
    HAL_I2C_Init                             0x08000bbd   Thumb Code   180  stm32f7xx_hal_i2c.o(i.HAL_I2C_Init)
    HAL_I2C_Mem_Read                         0x08000c75   Thumb Code   358  stm32f7xx_hal_i2c.o(i.HAL_I2C_Mem_Read)
    HAL_I2C_Mem_Write                        0x08000de5   Thumb Code   354  stm32f7xx_hal_i2c.o(i.HAL_I2C_Mem_Write)
    HAL_I2C_MspInit                          0x08000f4d   Thumb Code    58  stm32f7xx_hal_msp.o(i.HAL_I2C_MspInit)
    HAL_IncTick                              0x08000f95   Thumb Code    12  stm32f7xx_hal.o(i.HAL_IncTick)
    HAL_Init                                 0x08000fa5   Thumb Code    22  stm32f7xx_hal.o(i.HAL_Init)
    HAL_InitTick                             0x08000fbd   Thumb Code    54  stm32f7xx_hal.o(i.HAL_InitTick)
    HAL_LTDC_ConfigLayer                     0x08000ffd   Thumb Code    82  stm32f7xx_hal_ltdc.o(i.HAL_LTDC_ConfigLayer)
    HAL_LTDC_Init                            0x08001051   Thumb Code   252  stm32f7xx_hal_ltdc.o(i.HAL_LTDC_Init)
    HAL_LTDC_MspInit                         0x08001151   Thumb Code   136  stm32f7xx_hal_msp.o(i.HAL_LTDC_MspInit)
    HAL_LTDC_SetAddress                      0x080011f5   Thumb Code    68  stm32f7xx_hal_ltdc.o(i.HAL_LTDC_SetAddress)
    HAL_MPU_ConfigRegion                     0x08001239   Thumb Code    86  stm32f7xx_hal_cortex.o(i.HAL_MPU_ConfigRegion)
    HAL_MPU_Disable                          0x08001295   Thumb Code    24  stm32f7xx_hal_cortex.o(i.HAL_MPU_Disable)
    HAL_MPU_Enable                           0x080012b1   Thumb Code    30  stm32f7xx_hal_cortex.o(i.HAL_MPU_Enable)
    HAL_MspInit                              0x080012d5   Thumb Code    88  stm32f7xx_hal_msp.o(i.HAL_MspInit)
    HAL_NVIC_EnableIRQ                       0x0800132d   Thumb Code    22  stm32f7xx_hal_cortex.o(i.HAL_NVIC_EnableIRQ)
    HAL_NVIC_SetPriority                     0x08001345   Thumb Code    60  stm32f7xx_hal_cortex.o(i.HAL_NVIC_SetPriority)
    HAL_NVIC_SetPriorityGrouping             0x08001385   Thumb Code    28  stm32f7xx_hal_cortex.o(i.HAL_NVIC_SetPriorityGrouping)
    HAL_PWREx_EnableOverDrive                0x080013a9   Thumb Code   100  stm32f7xx_hal_pwr_ex.o(i.HAL_PWREx_EnableOverDrive)
    HAL_RCCEx_PeriphCLKConfig                0x08001415   Thumb Code  1276  stm32f7xx_hal_rcc_ex.o(i.HAL_RCCEx_PeriphCLKConfig)
    HAL_RCC_ClockConfig                      0x08001911   Thumb Code   282  stm32f7xx_hal_rcc.o(i.HAL_RCC_ClockConfig)
    HAL_RCC_GetHCLKFreq                      0x08001a3d   Thumb Code     6  stm32f7xx_hal_rcc.o(i.HAL_RCC_GetHCLKFreq)
    HAL_RCC_GetSysClockFreq                  0x08001a49   Thumb Code    88  stm32f7xx_hal_rcc.o(i.HAL_RCC_GetSysClockFreq)
    HAL_RCC_OscConfig                        0x08001aad   Thumb Code   810  stm32f7xx_hal_rcc.o(i.HAL_RCC_OscConfig)
    HAL_RNG_Init                             0x08001de5   Thumb Code    48  stm32f7xx_hal_rng.o(i.HAL_RNG_Init)
    HAL_RNG_MspInit                          0x08001e15   Thumb Code    30  stm32f7xx_hal_msp.o(i.HAL_RNG_MspInit)
    HAL_SDRAM_Init                           0x08001e3d   Thumb Code    66  stm32f7xx_hal_sdram.o(i.HAL_SDRAM_Init)
    HAL_SDRAM_MspInit                        0x08001e7f   Thumb Code     4  stm32f7xx_hal_msp.o(i.HAL_SDRAM_MspInit)
    HAL_SDRAM_ProgramRefreshRate             0x08001e83   Thumb Code    34  stm32f7xx_hal_sdram.o(i.HAL_SDRAM_ProgramRefreshRate)
    HAL_SDRAM_SendCommand                    0x08001ea5   Thumb Code    48  stm32f7xx_hal_sdram.o(i.HAL_SDRAM_SendCommand)
    HAL_SD_ConfigWideBusOperation            0x08001ed5   Thumb Code   120  stm32f7xx_hal_sd.o(i.HAL_SD_ConfigWideBusOperation)
    HAL_SD_ErrorCallback                     0x08001f4d   Thumb Code     2  stm32f7xx_hal_sd.o(i.HAL_SD_ErrorCallback)
    HAL_SD_GetCardCSD                        0x08001f4f   Thumb Code   506  stm32f7xx_hal_sd.o(i.HAL_SD_GetCardCSD)
    HAL_SD_GetCardInfo                       0x08002149   Thumb Code    36  stm32f7xx_hal_sd.o(i.HAL_SD_GetCardInfo)
    HAL_SD_GetCardState                      0x0800216d   Thumb Code    44  stm32f7xx_hal_sd.o(i.HAL_SD_GetCardState)
    HAL_SD_Init                              0x08002199   Thumb Code    54  stm32f7xx_hal_sd.o(i.HAL_SD_Init)
    HAL_SD_InitCard                          0x080021cf   Thumb Code    92  stm32f7xx_hal_sd.o(i.HAL_SD_InitCard)
    HAL_SD_MspInit                           0x0800222d   Thumb Code    72  stm32f7xx_hal_msp.o(i.HAL_SD_MspInit)
    HAL_SD_ReadBlocks_DMA                    0x08002285   Thumb Code   236  stm32f7xx_hal_sd.o(i.HAL_SD_ReadBlocks_DMA)
    HAL_SD_RxCpltCallback                    0x08002379   Thumb Code     2  stm32f7xx_hal_sd.o(i.HAL_SD_RxCpltCallback)
    HAL_SD_WriteBlocks_DMA                   0x0800237d   Thumb Code   240  stm32f7xx_hal_sd.o(i.HAL_SD_WriteBlocks_DMA)
    HAL_SYSTICK_CLKSourceConfig              0x08002475   Thumb Code    24  stm32f7xx_hal_cortex.o(i.HAL_SYSTICK_CLKSourceConfig)
    HAL_SYSTICK_Callback                     0x0800248d   Thumb Code     2  stm32f7xx_hal_cortex.o(i.HAL_SYSTICK_Callback)
    HAL_SYSTICK_Config                       0x0800248f   Thumb Code    38  stm32f7xx_hal_cortex.o(i.HAL_SYSTICK_Config)
    HAL_SYSTICK_IRQHandler                   0x080024b5   Thumb Code     8  stm32f7xx_hal_cortex.o(i.HAL_SYSTICK_IRQHandler)
    HardFault_Handler                        0x080024bd   Thumb Code     2  stm32f7xx_it.o(i.HardFault_Handler)
    MT48LC4M32B2_Init                        0x08002931   Thumb Code   156  mt48lc4m32b2.o(i.MT48LC4M32B2_Init)
    MX_FATFS_Init                            0x08002a29   Thumb Code    18  fatfs.o(i.MX_FATFS_Init)
    MemManage_Handler                        0x08002ca1   Thumb Code     2  stm32f7xx_it.o(i.MemManage_Handler)
    NMI_Handler                              0x08002ca3   Thumb Code     2  stm32f7xx_it.o(i.NMI_Handler)
    PendSV_Handler                           0x08002cc7   Thumb Code     2  stm32f7xx_it.o(i.PendSV_Handler)
    SDMMC_CmdAppCommand                      0x08002cc9   Thumb Code    50  stm32f7xx_ll_sdmmc.o(i.SDMMC_CmdAppCommand)
    SDMMC_CmdAppOperCommand                  0x08002cfd   Thumb Code    48  stm32f7xx_ll_sdmmc.o(i.SDMMC_CmdAppOperCommand)
    SDMMC_CmdBlockLength                     0x08002d31   Thumb Code    50  stm32f7xx_ll_sdmmc.o(i.SDMMC_CmdBlockLength)
    SDMMC_CmdBusWidth                        0x08002d63   Thumb Code    50  stm32f7xx_ll_sdmmc.o(i.SDMMC_CmdBusWidth)
    SDMMC_CmdGoIdleState                     0x08002d95   Thumb Code    76  stm32f7xx_ll_sdmmc.o(i.SDMMC_CmdGoIdleState)
    SDMMC_CmdOperCond                        0x08002de5   Thumb Code    94  stm32f7xx_ll_sdmmc.o(i.SDMMC_CmdOperCond)
    SDMMC_CmdReadMultiBlock                  0x08002e49   Thumb Code    50  stm32f7xx_ll_sdmmc.o(i.SDMMC_CmdReadMultiBlock)
    SDMMC_CmdReadSingleBlock                 0x08002e7b   Thumb Code    50  stm32f7xx_ll_sdmmc.o(i.SDMMC_CmdReadSingleBlock)
    SDMMC_CmdSelDesel                        0x08002ead   Thumb Code    48  stm32f7xx_ll_sdmmc.o(i.SDMMC_CmdSelDesel)
    SDMMC_CmdSendCID                         0x08002edd   Thumb Code    42  stm32f7xx_ll_sdmmc.o(i.SDMMC_CmdSendCID)
    SDMMC_CmdSendCSD                         0x08002f07   Thumb Code    46  stm32f7xx_ll_sdmmc.o(i.SDMMC_CmdSendCSD)
    SDMMC_CmdSendSCR                         0x08002f35   Thumb Code    48  stm32f7xx_ll_sdmmc.o(i.SDMMC_CmdSendSCR)
    SDMMC_CmdSendStatus                      0x08002f65   Thumb Code    50  stm32f7xx_ll_sdmmc.o(i.SDMMC_CmdSendStatus)
    SDMMC_CmdSetRelAdd                       0x08002f97   Thumb Code    48  stm32f7xx_ll_sdmmc.o(i.SDMMC_CmdSetRelAdd)
    SDMMC_CmdStopTransfer                    0x08002fc9   Thumb Code    46  stm32f7xx_ll_sdmmc.o(i.SDMMC_CmdStopTransfer)
    SDMMC_CmdWriteMultiBlock                 0x08002ffd   Thumb Code    50  stm32f7xx_ll_sdmmc.o(i.SDMMC_CmdWriteMultiBlock)
    SDMMC_CmdWriteSingleBlock                0x0800302f   Thumb Code    50  stm32f7xx_ll_sdmmc.o(i.SDMMC_CmdWriteSingleBlock)
    SDMMC_ConfigData                         0x08003061   Thumb Code    38  stm32f7xx_ll_sdmmc.o(i.SDMMC_ConfigData)
    SDMMC_GetPowerState                      0x080032b9   Thumb Code     8  stm32f7xx_ll_sdmmc.o(i.SDMMC_GetPowerState)
    SDMMC_GetResponse                        0x080032c1   Thumb Code    12  stm32f7xx_ll_sdmmc.o(i.SDMMC_GetResponse)
    SDMMC_Init                               0x080032cd   Thumb Code    34  stm32f7xx_ll_sdmmc.o(i.SDMMC_Init)
    SDMMC_PowerState_ON                      0x080032ef   Thumb Code     8  stm32f7xx_ll_sdmmc.o(i.SDMMC_PowerState_ON)
    SDMMC_ReadFIFO                           0x080032f7   Thumb Code     6  stm32f7xx_ll_sdmmc.o(i.SDMMC_ReadFIFO)
    SDMMC_SendCommand                        0x080032fd   Thumb Code    34  stm32f7xx_ll_sdmmc.o(i.SDMMC_SendCommand)
    SD_initialize                            0x080036e9   Thumb Code    28  sd_diskio.o(i.SD_initialize)
    SD_ioctl                                 0x08003709   Thumb Code    84  sd_diskio.o(i.SD_ioctl)
    SD_read                                  0x08003761   Thumb Code   102  sd_diskio.o(i.SD_read)
    SD_status                                0x080037cd   Thumb Code     4  sd_diskio.o(i.SD_status)
    SD_write                                 0x080037d1   Thumb Code   102  sd_diskio.o(i.SD_write)
    SVC_Handler                              0x0800383d   Thumb Code     2  stm32f7xx_it.o(i.SVC_Handler)
    SysTick_Handler                          0x0800383f   Thumb Code    14  stm32f7xx_it.o(i.SysTick_Handler)
    SystemClock_Config                       0x0800384d   Thumb Code   196  main.o(i.SystemClock_Config)
    SystemInit                               0x0800391d   Thumb Code    68  system_stm32f7xx.o(i.SystemInit)
    TFT_DisplayString                        0x08003971   Thumb Code   138  ltdc.o(i.TFT_DisplayString)
    TFT_DrawChar                             0x08003a05   Thumb Code   168  ltdc.o(i.TFT_DrawChar)
    TFT_DrawLine                             0x08003ab5   Thumb Code   148  ltdc.o(i.TFT_DrawLine)
    TFT_DrawPixel                            0x08003b49   Thumb Code    18  ltdc.o(i.TFT_DrawPixel)
    TFT_FillRectangle                        0x08003b61   Thumb Code    58  ltdc.o(i.TFT_FillRectangle)
    TFT_FillScreen                           0x08003ba1   Thumb Code    28  ltdc.o(i.TFT_FillScreen)
    TFT_SetBackColor                         0x08003bc1   Thumb Code     6  ltdc.o(i.TFT_SetBackColor)
    TFT_SetFont                              0x08003bcd   Thumb Code     6  ltdc.o(i.TFT_SetFont)
    TFT_SetTextColor                         0x08003bd9   Thumb Code     6  ltdc.o(i.TFT_SetTextColor)
    TS_DetectTouch                           0x08003be5   Thumb Code    60  ft5336.o(i.TS_DetectTouch)
    TS_GetState                              0x08003c25   Thumb Code   312  ft5336.o(i.TS_GetState)
    TS_GetTouchInfo                          0x08003d65   Thumb Code   200  ft5336.o(i.TS_GetTouchInfo)
    TS_GetXY                                 0x08003e31   Thumb Code   282  ft5336.o(i.TS_GetXY)
    TS_Get_GestureId                         0x08003f51   Thumb Code    86  ft5336.o(i.TS_Get_GestureId)
    TS_IO_Read                               0x08003fa9   Thumb Code    40  ft5336.o(i.TS_IO_Read)
    TS_IO_Write                              0x08003fd5   Thumb Code    30  ft5336.o(i.TS_IO_Write)
    Touch_Ini                                0x08003ff9   Thumb Code    52  ft5336.o(i.Touch_Ini)
    Touch_ReadID                             0x08004035   Thumb Code    54  ft5336.o(i.Touch_ReadID)
    UsageFault_Handler                       0x0800406b   Thumb Code     2  stm32f7xx_it.o(i.UsageFault_Handler)
    __0sprintf$6                             0x0800406d   Thumb Code    34  printf6.o(i.__0sprintf$6)
    __1sprintf$6                             0x0800406d   Thumb Code     0  printf6.o(i.__0sprintf$6)
    __2sprintf                               0x0800406d   Thumb Code     0  printf6.o(i.__0sprintf$6)
    __scatterload_copy                       0x08004095   Thumb Code    14  handlers.o(i.__scatterload_copy)
    __scatterload_null                       0x080040a3   Thumb Code     2  handlers.o(i.__scatterload_null)
    __scatterload_zeroinit                   0x080040a5   Thumb Code    14  handlers.o(i.__scatterload_zeroinit)
    ft5336_TS_GetGestureID                   0x08004401   Thumb Code    30  ft5336.o(i.ft5336_TS_GetGestureID)
    main                                     0x08004421   Thumb Code   982  main.o(i.main)
    SD_Driver                                0x080048c8   Data          20  sd_diskio.o(.constdata)
    Font16_Table                             0x080048dc   Data        3040  font16.o(.constdata)
    Font20_Table                             0x080054bc   Data        3800  font20.o(.constdata)
    AHBPrescTable                            0x08006394   Data          16  system_stm32f7xx.o(.constdata)
    Region$$Table$$Base                      0x080063a4   Number         0  anon$$obj.o(Region$$Table)
    Region$$Table$$Limit                     0x080063c4   Number         0  anon$$obj.o(Region$$Table)
    bmp1                                     0x20000000   Data           4  main.o(.data)
    dma2d_in1                                0x20000004   Data           4  main.o(.data)
    dma2d_in2                                0x20000008   Data           4  main.o(.data)
    retSD                                    0x2000000c   Data           1  fatfs.o(.data)
    SDPath                                   0x2000000d   Data           4  fatfs.o(.data)
    Font16                                   0x20000028   Data           8  font16.o(.data)
    Font20                                   0x20000030   Data           8  font20.o(.data)
    X_SIZE                                   0x20000038   Data           2  ltdc.o(.data)
    ch                                       0x2000003c   Data           4  ltdc.o(.data)
    hal_stat                                 0x20000040   Data           1  mt48lc4m32b2.o(.data)
    ft5336_handle                            0x20000046   Data           3  ft5336.o(.data)
    SystemCoreClock                          0x2000004c   Data           4  system_stm32f7xx.o(.data)
    uwTickFreq                               0x20000050   Data           1  stm32f7xx_hal.o(.data)
    uwTickPrio                               0x20000054   Data           4  stm32f7xx_hal.o(.data)
    uwTick                                   0x20000058   Data           4  stm32f7xx_hal.o(.data)
    str1                                     0x20000084   Data          30  main.o(.bss)
    hdma2d                                   0x200000d0   Data          64  main.o(.bss)
    hi2c3                                    0x20000110   Data          76  main.o(.bss)
    hltdc                                    0x2000015c   Data         168  main.o(.bss)
    hrng                                     0x20000204   Data          12  main.o(.bss)
    hsd1                                     0x20000210   Data         132  main.o(.bss)
    hsdram1                                  0x20000294   Data          52  main.o(.bss)
    lcdprop                                  0x200002c8   Data          12  ltdc.o(.bss)
    command                                  0x200002d4   Data          16  mt48lc4m32b2.o(.bss)
    disk                                     0x2000030c   Data          12  ff_gen_drv.o(.bss)
    __initial_sp                             0x20004318   Data           0  startup_stm32f746xx.o(STACK)



==============================================================================

Memory Map of the image

  Image Entry point : 0x080001c9

  Load Region LR_IROM1 (Base: 0x08000000, Size: 0x00006420, Max: 0x00100000, ABSOLUTE)

    Execution Region ER_IROM1 (Exec base: 0x08000000, Load base: 0x08000000, Size: 0x000063c4, Max: 0x00100000, ABSOLUTE)

    Exec Addr    Load Addr    Size         Type   Attr      Idx    E Section Name        Object

    0x08000000   0x08000000   0x000001c8   Data   RO            3    RESET               startup_stm32f746xx.o
    0x080001c8   0x080001c8   0x00000000   Code   RO         4413  * .ARM.Collect$$$$00000000  mc_w.l(entry.o)
    0x080001c8   0x080001c8   0x00000004   Code   RO         4683    .ARM.Collect$$$$00000001  mc_w.l(entry2.o)
    0x080001cc   0x080001cc   0x00000004   Code   RO         4686    .ARM.Collect$$$$00000004  mc_w.l(entry5.o)
    0x080001d0   0x080001d0   0x00000000   Code   RO         4688    .ARM.Collect$$$$00000008  mc_w.l(entry7b.o)
    0x080001d0   0x080001d0   0x00000000   Code   RO         4690    .ARM.Collect$$$$0000000A  mc_w.l(entry8b.o)
    0x080001d0   0x080001d0   0x00000008   Code   RO         4691    .ARM.Collect$$$$0000000B  mc_w.l(entry9a.o)
    0x080001d8   0x080001d8   0x00000000   Code   RO         4693    .ARM.Collect$$$$0000000D  mc_w.l(entry10a.o)
    0x080001d8   0x080001d8   0x00000000   Code   RO         4695    .ARM.Collect$$$$0000000F  mc_w.l(entry11a.o)
    0x080001d8   0x080001d8   0x00000004   Code   RO         4684    .ARM.Collect$$$$00002712  mc_w.l(entry2.o)
    0x080001dc   0x080001dc   0x00000024   Code   RO            4    .text               startup_stm32f746xx.o
    0x08000200   0x08000200   0x00000062   Code   RO         4416    .text               mc_w.l(uldiv.o)
    0x08000262   0x08000262   0x00000024   Code   RO         4418    .text               mc_w.l(memcpya.o)
    0x08000286   0x08000286   0x0000002c   Code   RO         4700    .text               mc_w.l(uidiv.o)
    0x080002b2   0x080002b2   0x0000001e   Code   RO         4702    .text               mc_w.l(llshl.o)
    0x080002d0   0x080002d0   0x00000020   Code   RO         4704    .text               mc_w.l(llushr.o)
    0x080002f0   0x080002f0   0x00000024   Code   RO         4717    .text               mc_w.l(init.o)
    0x08000314   0x08000314   0x0000000c   Code   RO          466    i.BSP_SD_GetCardInfo  bsp_driver_sd.o
    0x08000320   0x08000320   0x00000018   Code   RO          467    i.BSP_SD_GetCardState  bsp_driver_sd.o
    0x08000338   0x08000338   0x00000034   Code   RO          469    i.BSP_SD_Init       bsp_driver_sd.o
    0x0800036c   0x0800036c   0x0000001c   Code   RO          472    i.BSP_SD_ReadBlocks_DMA  bsp_driver_sd.o
    0x08000388   0x08000388   0x0000001c   Code   RO          474    i.BSP_SD_WriteBlocks_DMA  bsp_driver_sd.o
    0x080003a4   0x080003a4   0x00000002   Code   RO          238    i.BusFault_Handler  stm32f7xx_it.o
    0x080003a6   0x080003a6   0x00000002   PAD
    0x080003a8   0x080003a8   0x00000030   Code   RO           13    i.CheckForUserInput  main.o
    0x080003d8   0x080003d8   0x0000000c   Code   RO          239    i.DMA2D_IRQHandler  stm32f7xx_it.o
    0x080003e4   0x080003e4   0x00000028   Code   RO         2919    i.DMA_SetConfig     stm32f7xx_hal_dma.o
    0x0800040c   0x0800040c   0x00000002   Code   RO          240    i.DebugMon_Handler  stm32f7xx_it.o
    0x0800040e   0x0800040e   0x00000006   Code   RO          926    i.FATFS_LinkDriver  ff_gen_drv.o
    0x08000414   0x08000414   0x00000040   Code   RO          927    i.FATFS_LinkDriverEx  ff_gen_drv.o
    0x08000454   0x08000454   0x0000005e   Code   RO         2782    i.FMC_SDRAM_Init    stm32f7xx_ll_fmc.o
    0x080004b2   0x080004b2   0x0000000c   Code   RO         2783    i.FMC_SDRAM_ProgramRefreshRate  stm32f7xx_ll_fmc.o
    0x080004be   0x080004be   0x00000020   Code   RO         2784    i.FMC_SDRAM_SendCommand  stm32f7xx_ll_fmc.o
    0x080004de   0x080004de   0x00000002   PAD
    0x080004e0   0x080004e0   0x0000008c   Code   RO         2786    i.FMC_SDRAM_Timing_Init  stm32f7xx_ll_fmc.o
    0x0800056c   0x0800056c   0x00000002   Code   RO         3828    i.HAL_DMA2D_CLUTLoadingCpltCallback  stm32f7xx_hal_dma2d.o
    0x0800056e   0x0800056e   0x00000002   PAD
    0x08000570   0x08000570   0x000000a4   Code   RO         3834    i.HAL_DMA2D_ConfigLayer  stm32f7xx_hal_dma2d.o
    0x08000614   0x08000614   0x0000011c   Code   RO         3841    i.HAL_DMA2D_IRQHandler  stm32f7xx_hal_dma2d.o
    0x08000730   0x08000730   0x0000005a   Code   RO         3842    i.HAL_DMA2D_Init    stm32f7xx_hal_dma2d.o
    0x0800078a   0x0800078a   0x00000002   Code   RO         3843    i.HAL_DMA2D_LineEventCallback  stm32f7xx_hal_dma2d.o
    0x0800078c   0x0800078c   0x0000003c   Code   RO          363    i.HAL_DMA2D_MspInit  stm32f7xx_hal_msp.o
    0x080007c8   0x080007c8   0x00000004   Code   RO         2923    i.HAL_DMA_GetError  stm32f7xx_hal_dma.o
    0x080007cc   0x080007cc   0x0000007a   Code   RO         2930    i.HAL_DMA_Start_IT  stm32f7xx_hal_dma.o
    0x08000846   0x08000846   0x00000002   PAD
    0x08000848   0x08000848   0x00000024   Code   RO         2315    i.HAL_Delay         stm32f7xx_hal.o
    0x0800086c   0x0800086c   0x000000ac   Code   RO          364    i.HAL_FMC_MspInit   stm32f7xx_hal_msp.o
    0x08000918   0x08000918   0x000001d8   Code   RO         4086    i.HAL_GPIO_Init     stm32f7xx_hal_gpio.o
    0x08000af0   0x08000af0   0x0000000a   Code   RO         4088    i.HAL_GPIO_ReadPin  stm32f7xx_hal_gpio.o
    0x08000afa   0x08000afa   0x0000000a   Code   RO         4090    i.HAL_GPIO_WritePin  stm32f7xx_hal_gpio.o
    0x08000b04   0x08000b04   0x0000000c   Code   RO         2323    i.HAL_GetTick       stm32f7xx_hal.o
    0x08000b10   0x08000b10   0x00000058   Code   RO         1799    i.HAL_I2CEx_ConfigAnalogFilter  stm32f7xx_hal_i2c_ex.o
    0x08000b68   0x08000b68   0x00000054   Code   RO         1800    i.HAL_I2CEx_ConfigDigitalFilter  stm32f7xx_hal_i2c_ex.o
    0x08000bbc   0x08000bbc   0x000000b8   Code   RO         3152    i.HAL_I2C_Init      stm32f7xx_hal_i2c.o
    0x08000c74   0x08000c74   0x00000170   Code   RO         3168    i.HAL_I2C_Mem_Read  stm32f7xx_hal_i2c.o
    0x08000de4   0x08000de4   0x00000168   Code   RO         3171    i.HAL_I2C_Mem_Write  stm32f7xx_hal_i2c.o
    0x08000f4c   0x08000f4c   0x00000048   Code   RO          366    i.HAL_I2C_MspInit   stm32f7xx_hal_msp.o
    0x08000f94   0x08000f94   0x00000010   Code   RO         2329    i.HAL_IncTick       stm32f7xx_hal.o
    0x08000fa4   0x08000fa4   0x00000016   Code   RO         2330    i.HAL_Init          stm32f7xx_hal.o
    0x08000fba   0x08000fba   0x00000002   PAD
    0x08000fbc   0x08000fbc   0x00000040   Code   RO         2331    i.HAL_InitTick      stm32f7xx_hal.o
    0x08000ffc   0x08000ffc   0x00000052   Code   RO         1545    i.HAL_LTDC_ConfigLayer  stm32f7xx_hal_ltdc.o
    0x0800104e   0x0800104e   0x00000002   PAD
    0x08001050   0x08001050   0x00000100   Code   RO         1562    i.HAL_LTDC_Init     stm32f7xx_hal_ltdc.o
    0x08001150   0x08001150   0x000000a4   Code   RO          368    i.HAL_LTDC_MspInit  stm32f7xx_hal_msp.o
    0x080011f4   0x080011f4   0x00000044   Code   RO         1569    i.HAL_LTDC_SetAddress  stm32f7xx_hal_ltdc.o
    0x08001238   0x08001238   0x0000005c   Code   RO         4149    i.HAL_MPU_ConfigRegion  stm32f7xx_hal_cortex.o
    0x08001294   0x08001294   0x0000001c   Code   RO         4150    i.HAL_MPU_Disable   stm32f7xx_hal_cortex.o
    0x080012b0   0x080012b0   0x00000024   Code   RO         4151    i.HAL_MPU_Enable    stm32f7xx_hal_cortex.o
    0x080012d4   0x080012d4   0x00000058   Code   RO          369    i.HAL_MspInit       stm32f7xx_hal_msp.o
    0x0800132c   0x0800132c   0x00000016   Code   RO         4154    i.HAL_NVIC_EnableIRQ  stm32f7xx_hal_cortex.o
    0x08001342   0x08001342   0x00000002   PAD
    0x08001344   0x08001344   0x00000040   Code   RO         4160    i.HAL_NVIC_SetPriority  stm32f7xx_hal_cortex.o
    0x08001384   0x08001384   0x00000024   Code   RO         4161    i.HAL_NVIC_SetPriorityGrouping  stm32f7xx_hal_cortex.o
    0x080013a8   0x080013a8   0x0000006c   Code   RO         1456    i.HAL_PWREx_EnableOverDrive  stm32f7xx_hal_pwr_ex.o
    0x08001414   0x08001414   0x000004fc   Code   RO         1876    i.HAL_RCCEx_PeriphCLKConfig  stm32f7xx_hal_rcc_ex.o
    0x08001910   0x08001910   0x0000012c   Code   RO         1931    i.HAL_RCC_ClockConfig  stm32f7xx_hal_rcc.o
    0x08001a3c   0x08001a3c   0x0000000c   Code   RO         1936    i.HAL_RCC_GetHCLKFreq  stm32f7xx_hal_rcc.o
    0x08001a48   0x08001a48   0x00000064   Code   RO         1940    i.HAL_RCC_GetSysClockFreq  stm32f7xx_hal_rcc.o
    0x08001aac   0x08001aac   0x00000338   Code   RO         1943    i.HAL_RCC_OscConfig  stm32f7xx_hal_rcc.o
    0x08001de4   0x08001de4   0x00000030   Code   RO         4292    i.HAL_RNG_Init      stm32f7xx_hal_rng.o
    0x08001e14   0x08001e14   0x00000028   Code   RO          371    i.HAL_RNG_MspInit   stm32f7xx_hal_msp.o
    0x08001e3c   0x08001e3c   0x00000042   Code   RO         2158    i.HAL_SDRAM_Init    stm32f7xx_hal_sdram.o
    0x08001e7e   0x08001e7e   0x00000004   Code   RO          373    i.HAL_SDRAM_MspInit  stm32f7xx_hal_msp.o
    0x08001e82   0x08001e82   0x00000022   Code   RO         2161    i.HAL_SDRAM_ProgramRefreshRate  stm32f7xx_hal_sdram.o
    0x08001ea4   0x08001ea4   0x00000030   Code   RO         2167    i.HAL_SDRAM_SendCommand  stm32f7xx_hal_sdram.o
    0x08001ed4   0x08001ed4   0x00000078   Code   RO         3590    i.HAL_SD_ConfigWideBusOperation  stm32f7xx_hal_sd.o
    0x08001f4c   0x08001f4c   0x00000002   Code   RO         3593    i.HAL_SD_ErrorCallback  stm32f7xx_hal_sd.o
    0x08001f4e   0x08001f4e   0x000001fa   Code   RO         3595    i.HAL_SD_GetCardCSD  stm32f7xx_hal_sd.o
    0x08002148   0x08002148   0x00000024   Code   RO         3596    i.HAL_SD_GetCardInfo  stm32f7xx_hal_sd.o
    0x0800216c   0x0800216c   0x0000002c   Code   RO         3597    i.HAL_SD_GetCardState  stm32f7xx_hal_sd.o
    0x08002198   0x08002198   0x00000036   Code   RO         3602    i.HAL_SD_Init       stm32f7xx_hal_sd.o
    0x080021ce   0x080021ce   0x0000005c   Code   RO         3603    i.HAL_SD_InitCard   stm32f7xx_hal_sd.o
    0x0800222a   0x0800222a   0x00000002   PAD
    0x0800222c   0x0800222c   0x00000058   Code   RO          375    i.HAL_SD_MspInit    stm32f7xx_hal_msp.o
    0x08002284   0x08002284   0x000000f4   Code   RO         3607    i.HAL_SD_ReadBlocks_DMA  stm32f7xx_hal_sd.o
    0x08002378   0x08002378   0x00000002   Code   RO         3609    i.HAL_SD_RxCpltCallback  stm32f7xx_hal_sd.o
    0x0800237a   0x0800237a   0x00000002   PAD
    0x0800237c   0x0800237c   0x000000f8   Code   RO         3612    i.HAL_SD_WriteBlocks_DMA  stm32f7xx_hal_sd.o
    0x08002474   0x08002474   0x00000018   Code   RO         4163    i.HAL_SYSTICK_CLKSourceConfig  stm32f7xx_hal_cortex.o
    0x0800248c   0x0800248c   0x00000002   Code   RO         4164    i.HAL_SYSTICK_Callback  stm32f7xx_hal_cortex.o
    0x0800248e   0x0800248e   0x00000026   Code   RO         4165    i.HAL_SYSTICK_Config  stm32f7xx_hal_cortex.o
    0x080024b4   0x080024b4   0x00000008   Code   RO         4166    i.HAL_SYSTICK_IRQHandler  stm32f7xx_hal_cortex.o
    0x080024bc   0x080024bc   0x00000002   Code   RO          241    i.HardFault_Handler  stm32f7xx_it.o
    0x080024be   0x080024be   0x00000022   Code   RO         3194    i.I2C_Flush_TXDR    stm32f7xx_hal_i2c.o
    0x080024e0   0x080024e0   0x0000007c   Code   RO         3202    i.I2C_IsAcknowledgeFailed  stm32f7xx_hal_i2c.o
    0x0800255c   0x0800255c   0x00000070   Code   RO         3205    i.I2C_RequestMemoryRead  stm32f7xx_hal_i2c.o
    0x080025cc   0x080025cc   0x00000070   Code   RO         3206    i.I2C_RequestMemoryWrite  stm32f7xx_hal_i2c.o
    0x0800263c   0x0800263c   0x0000002c   Code   RO         3209    i.I2C_TransferConfig  stm32f7xx_hal_i2c.o
    0x08002668   0x08002668   0x00000052   Code   RO         3210    i.I2C_WaitOnFlagUntilTimeout  stm32f7xx_hal_i2c.o
    0x080026ba   0x080026ba   0x00000050   Code   RO         3212    i.I2C_WaitOnSTOPFlagUntilTimeout  stm32f7xx_hal_i2c.o
    0x0800270a   0x0800270a   0x00000054   Code   RO         3213    i.I2C_WaitOnTXISFlagUntilTimeout  stm32f7xx_hal_i2c.o
    0x0800275e   0x0800275e   0x000001d0   Code   RO         1581    i.LTDC_SetConfig    stm32f7xx_hal_ltdc.o
    0x0800292e   0x0800292e   0x00000002   PAD
    0x08002930   0x08002930   0x000000a8   Code   RO          808    i.MT48LC4M32B2_Init  mt48lc4m32b2.o
    0x080029d8   0x080029d8   0x00000050   Code   RO           14    i.MX_DMA2D_Init     main.o
    0x08002a28   0x08002a28   0x0000001c   Code   RO          324    i.MX_FATFS_Init     fatfs.o
    0x08002a44   0x08002a44   0x00000058   Code   RO           15    i.MX_FMC_Init       main.o
    0x08002a9c   0x08002a9c   0x0000011c   Code   RO           16    i.MX_GPIO_Init      main.o
    0x08002bb8   0x08002bb8   0x00000050   Code   RO           17    i.MX_I2C3_Init      main.o
    0x08002c08   0x08002c08   0x00000098   Code   RO           18    i.MX_LTDC_Init      main.o
    0x08002ca0   0x08002ca0   0x00000002   Code   RO          242    i.MemManage_Handler  stm32f7xx_it.o
    0x08002ca2   0x08002ca2   0x00000002   Code   RO          243    i.NMI_Handler       stm32f7xx_it.o
    0x08002ca4   0x08002ca4   0x00000022   Code   RO         4167    i.NVIC_SetPriority  stm32f7xx_hal_cortex.o
    0x08002cc6   0x08002cc6   0x00000002   Code   RO          244    i.PendSV_Handler    stm32f7xx_it.o
    0x08002cc8   0x08002cc8   0x00000032   Code   RO         2503    i.SDMMC_CmdAppCommand  stm32f7xx_ll_sdmmc.o
    0x08002cfa   0x08002cfa   0x00000002   PAD
    0x08002cfc   0x08002cfc   0x00000034   Code   RO         2504    i.SDMMC_CmdAppOperCommand  stm32f7xx_ll_sdmmc.o
    0x08002d30   0x08002d30   0x00000032   Code   RO         2505    i.SDMMC_CmdBlockLength  stm32f7xx_ll_sdmmc.o
    0x08002d62   0x08002d62   0x00000032   Code   RO         2506    i.SDMMC_CmdBusWidth  stm32f7xx_ll_sdmmc.o
    0x08002d94   0x08002d94   0x00000050   Code   RO         2510    i.SDMMC_CmdGoIdleState  stm32f7xx_ll_sdmmc.o
    0x08002de4   0x08002de4   0x00000064   Code   RO         2512    i.SDMMC_CmdOperCond  stm32f7xx_ll_sdmmc.o
    0x08002e48   0x08002e48   0x00000032   Code   RO         2513    i.SDMMC_CmdReadMultiBlock  stm32f7xx_ll_sdmmc.o
    0x08002e7a   0x08002e7a   0x00000032   Code   RO         2514    i.SDMMC_CmdReadSingleBlock  stm32f7xx_ll_sdmmc.o
    0x08002eac   0x08002eac   0x00000030   Code   RO         2517    i.SDMMC_CmdSelDesel  stm32f7xx_ll_sdmmc.o
    0x08002edc   0x08002edc   0x0000002a   Code   RO         2518    i.SDMMC_CmdSendCID  stm32f7xx_ll_sdmmc.o
    0x08002f06   0x08002f06   0x0000002e   Code   RO         2519    i.SDMMC_CmdSendCSD  stm32f7xx_ll_sdmmc.o
    0x08002f34   0x08002f34   0x00000030   Code   RO         2520    i.SDMMC_CmdSendSCR  stm32f7xx_ll_sdmmc.o
    0x08002f64   0x08002f64   0x00000032   Code   RO         2521    i.SDMMC_CmdSendStatus  stm32f7xx_ll_sdmmc.o
    0x08002f96   0x08002f96   0x00000030   Code   RO         2522    i.SDMMC_CmdSetRelAdd  stm32f7xx_ll_sdmmc.o
    0x08002fc6   0x08002fc6   0x00000002   PAD
    0x08002fc8   0x08002fc8   0x00000034   Code   RO         2524    i.SDMMC_CmdStopTransfer  stm32f7xx_ll_sdmmc.o
    0x08002ffc   0x08002ffc   0x00000032   Code   RO         2526    i.SDMMC_CmdWriteMultiBlock  stm32f7xx_ll_sdmmc.o
    0x0800302e   0x0800302e   0x00000032   Code   RO         2527    i.SDMMC_CmdWriteSingleBlock  stm32f7xx_ll_sdmmc.o
    0x08003060   0x08003060   0x00000026   Code   RO         2528    i.SDMMC_ConfigData  stm32f7xx_ll_sdmmc.o
    0x08003086   0x08003086   0x00000002   PAD
    0x08003088   0x08003088   0x0000011c   Code   RO         2529    i.SDMMC_GetCmdResp1  stm32f7xx_ll_sdmmc.o
    0x080031a4   0x080031a4   0x00000050   Code   RO         2530    i.SDMMC_GetCmdResp2  stm32f7xx_ll_sdmmc.o
    0x080031f4   0x080031f4   0x00000040   Code   RO         2531    i.SDMMC_GetCmdResp3  stm32f7xx_ll_sdmmc.o
    0x08003234   0x08003234   0x00000084   Code   RO         2532    i.SDMMC_GetCmdResp6  stm32f7xx_ll_sdmmc.o
    0x080032b8   0x080032b8   0x00000008   Code   RO         2536    i.SDMMC_GetPowerState  stm32f7xx_ll_sdmmc.o
    0x080032c0   0x080032c0   0x0000000c   Code   RO         2537    i.SDMMC_GetResponse  stm32f7xx_ll_sdmmc.o
    0x080032cc   0x080032cc   0x00000022   Code   RO         2538    i.SDMMC_Init        stm32f7xx_ll_sdmmc.o
    0x080032ee   0x080032ee   0x00000008   Code   RO         2540    i.SDMMC_PowerState_ON  stm32f7xx_ll_sdmmc.o
    0x080032f6   0x080032f6   0x00000006   Code   RO         2541    i.SDMMC_ReadFIFO    stm32f7xx_ll_sdmmc.o
    0x080032fc   0x080032fc   0x00000022   Code   RO         2542    i.SDMMC_SendCommand  stm32f7xx_ll_sdmmc.o
    0x0800331e   0x0800331e   0x00000002   PAD
    0x08003320   0x08003320   0x00000020   Code   RO          545    i.SD_CheckStatus    sd_diskio.o
    0x08003340   0x08003340   0x0000005e   Code   RO         3614    i.SD_DMAError       stm32f7xx_hal_sd.o
    0x0800339e   0x0800339e   0x0000003e   Code   RO         3615    i.SD_DMAReceiveCplt  stm32f7xx_hal_sd.o
    0x080033dc   0x080033dc   0x0000000e   Code   RO         3617    i.SD_DMATransmitCplt  stm32f7xx_hal_sd.o
    0x080033ea   0x080033ea   0x000000d6   Code   RO         3619    i.SD_FindSCR        stm32f7xx_hal_sd.o
    0x080034c0   0x080034c0   0x000000e6   Code   RO         3620    i.SD_InitCard       stm32f7xx_hal_sd.o
    0x080035a6   0x080035a6   0x000000a6   Code   RO         3621    i.SD_PowerON        stm32f7xx_hal_sd.o
    0x0800364c   0x0800364c   0x0000004e   Code   RO         3623    i.SD_WideBus_Disable  stm32f7xx_hal_sd.o
    0x0800369a   0x0800369a   0x0000004e   Code   RO         3624    i.SD_WideBus_Enable  stm32f7xx_hal_sd.o
    0x080036e8   0x080036e8   0x00000020   Code   RO          546    i.SD_initialize     sd_diskio.o
    0x08003708   0x08003708   0x00000058   Code   RO          547    i.SD_ioctl          sd_diskio.o
    0x08003760   0x08003760   0x0000006c   Code   RO          548    i.SD_read           sd_diskio.o
    0x080037cc   0x080037cc   0x00000004   Code   RO          549    i.SD_status         sd_diskio.o
    0x080037d0   0x080037d0   0x0000006c   Code   RO          550    i.SD_write          sd_diskio.o
    0x0800383c   0x0800383c   0x00000002   Code   RO          245    i.SVC_Handler       stm32f7xx_it.o
    0x0800383e   0x0800383e   0x0000000e   Code   RO          246    i.SysTick_Handler   stm32f7xx_it.o
    0x0800384c   0x0800384c   0x000000d0   Code   RO           19    i.SystemClock_Config  main.o
    0x0800391c   0x0800391c   0x00000054   Code   RO         1391    i.SystemInit        system_stm32f7xx.o
    0x08003970   0x08003970   0x00000094   Code   RO          686    i.TFT_DisplayString  ltdc.o
    0x08003a04   0x08003a04   0x000000b0   Code   RO          689    i.TFT_DrawChar      ltdc.o
    0x08003ab4   0x08003ab4   0x00000094   Code   RO          690    i.TFT_DrawLine      ltdc.o
    0x08003b48   0x08003b48   0x00000018   Code   RO          692    i.TFT_DrawPixel     ltdc.o
    0x08003b60   0x08003b60   0x00000040   Code   RO          694    i.TFT_FillRectangle  ltdc.o
    0x08003ba0   0x08003ba0   0x00000020   Code   RO          696    i.TFT_FillScreen    ltdc.o
    0x08003bc0   0x08003bc0   0x0000000c   Code   RO          699    i.TFT_SetBackColor  ltdc.o
    0x08003bcc   0x08003bcc   0x0000000c   Code   RO          700    i.TFT_SetFont       ltdc.o
    0x08003bd8   0x08003bd8   0x0000000c   Code   RO          701    i.TFT_SetTextColor  ltdc.o
    0x08003be4   0x08003be4   0x00000040   Code   RO          838    i.TS_DetectTouch    ft5336.o
    0x08003c24   0x08003c24   0x00000140   Code   RO          839    i.TS_GetState       ft5336.o
    0x08003d64   0x08003d64   0x000000cc   Code   RO          840    i.TS_GetTouchInfo   ft5336.o
    0x08003e30   0x08003e30   0x00000120   Code   RO          841    i.TS_GetXY          ft5336.o
    0x08003f50   0x08003f50   0x00000056   Code   RO          842    i.TS_Get_GestureId  ft5336.o
    0x08003fa6   0x08003fa6   0x00000002   PAD
    0x08003fa8   0x08003fa8   0x0000002c   Code   RO          843    i.TS_IO_Read        ft5336.o
    0x08003fd4   0x08003fd4   0x00000024   Code   RO          844    i.TS_IO_Write       ft5336.o
    0x08003ff8   0x08003ff8   0x0000003c   Code   RO          845    i.Touch_Ini         ft5336.o
    0x08004034   0x08004034   0x00000036   Code   RO          846    i.Touch_ReadID      ft5336.o
    0x0800406a   0x0800406a   0x00000002   Code   RO          247    i.UsageFault_Handler  stm32f7xx_it.o
    0x0800406c   0x0800406c   0x00000028   Code   RO         4579    i.__0sprintf$6      mc_w.l(printf6.o)
    0x08004094   0x08004094   0x0000000e   Code   RO         4727    i.__scatterload_copy  mc_w.l(handlers.o)
    0x080040a2   0x080040a2   0x00000002   Code   RO         4728    i.__scatterload_null  mc_w.l(handlers.o)
    0x080040a4   0x080040a4   0x0000000e   Code   RO         4729    i.__scatterload_zeroinit  mc_w.l(handlers.o)
    0x080040b2   0x080040b2   0x00000002   PAD
    0x080040b4   0x080040b4   0x000002f0   Code   RO         4584    i._printf_core      mc_w.l(printf6.o)
    0x080043a4   0x080043a4   0x00000024   Code   RO         4585    i._printf_post_padding  mc_w.l(printf6.o)
    0x080043c8   0x080043c8   0x0000002e   Code   RO         4586    i._printf_pre_padding  mc_w.l(printf6.o)
    0x080043f6   0x080043f6   0x0000000a   Code   RO         4588    i._sputc            mc_w.l(printf6.o)
    0x08004400   0x08004400   0x0000001e   Code   RO          847    i.ft5336_TS_GetGestureID  ft5336.o
    0x0800441e   0x0800441e   0x00000002   PAD
    0x08004420   0x08004420   0x000004a8   Code   RO           21    i.main              main.o
    0x080048c8   0x080048c8   0x00000014   Data   RO          551    .constdata          sd_diskio.o
    0x080048dc   0x080048dc   0x00000be0   Data   RO          640    .constdata          font16.o
    0x080054bc   0x080054bc   0x00000ed8   Data   RO          654    .constdata          font20.o
    0x08006394   0x08006394   0x00000010   Data   RO         1392    .constdata          system_stm32f7xx.o
    0x080063a4   0x080063a4   0x00000020   Data   RO         4725    Region$$Table       anon$$obj.o


    Execution Region RW_IRAM1 (Exec base: 0x20000000, Load base: 0x080063c4, Size: 0x00004318, Max: 0x00050000, ABSOLUTE)

    Exec Addr    Load Addr    Size         Type   Attr      Idx    E Section Name        Object

    0x20000000   0x080063c4   0x0000000c   Data   RW           24    .data               main.o
    0x2000000c   0x080063d0   0x00000005   Data   RW          328    .data               fatfs.o
    0x20000011   0x080063d5   0x00000003   PAD
    0x20000014   0x080063d8   0x00000008   Data   RW          376    .data               stm32f7xx_hal_msp.o
    0x2000001c   0x080063e0   0x0000000c   Data   RW          552    .data               sd_diskio.o
    0x20000028   0x080063ec   0x00000008   Data   RW          641    .data               font16.o
    0x20000030   0x080063f4   0x00000008   Data   RW          655    .data               font20.o
    0x20000038   0x080063fc   0x00000008   Data   RW          703    .data               ltdc.o
    0x20000040   0x08006404   0x00000001   Data   RW          810    .data               mt48lc4m32b2.o
    0x20000041   0x08006405   0x00000001   PAD
    0x20000042   0x08006406   0x00000007   Data   RW          849    .data               ft5336.o
    0x20000049   0x0800640d   0x00000003   PAD
    0x2000004c   0x08006410   0x00000004   Data   RW         1394    .data               system_stm32f7xx.o
    0x20000050   0x08006414   0x0000000c   Data   RW         2337    .data               stm32f7xx_hal.o
    0x2000005c        -       0x0000026c   Zero   RW           22    .bss                main.o
    0x200002c8        -       0x0000000c   Zero   RW          702    .bss                ltdc.o
    0x200002d4        -       0x00000010   Zero   RW          809    .bss                mt48lc4m32b2.o
    0x200002e4        -       0x00000028   Zero   RW          848    .bss                ft5336.o
    0x2000030c        -       0x0000000c   Zero   RW          930    .bss                ff_gen_drv.o
    0x20000318        -       0x00004000   Zero   RW            1    STACK               startup_stm32f746xx.o


==============================================================================

Image component sizes


      Code (inc. data)   RO Data    RW Data    ZI Data      Debug   Object Name

       144         20          0          0          0       3819   bsp_driver_sd.o
        28         10          0          5          0       1190   fatfs.o
        70          6          0          0         12       1851   ff_gen_drv.o
         0          0       3040          8          0       1199   font16.o
         0          0       3800          8          0       1199   font20.o
      1186         60          0          7         40      13970   ft5336.o
       628         52          0          8         12       7898   ltdc.o
      2132        282          0         12        620     875413   main.o
       168         12          0          1         16       1521   mt48lc4m32b2.o
       372         26         20         12          0       5156   sd_diskio.o
        36          8        456          0      16384        892   startup_stm32f746xx.o
       150         24          0         12          0       4373   stm32f7xx_hal.o
       384         28          0          0          0      40139   stm32f7xx_hal_cortex.o
       166          0          0          0          0       3074   stm32f7xx_hal_dma.o
       542          6          0          0          0       4630   stm32f7xx_hal_dma2d.o
       492         54          0          0          0       3455   stm32f7xx_hal_gpio.o
      1584         36          0          0          0      12842   stm32f7xx_hal_i2c.o
       172          0          0          0          0       2131   stm32f7xx_hal_i2c_ex.o
       870          4          0          0          0       4237   stm32f7xx_hal_ltdc.o
       688        112          0          8          0       6006   stm32f7xx_hal_msp.o
       108          8          0          0          0       1380   stm32f7xx_hal_pwr_ex.o
      1236         50          0          0          0       4682   stm32f7xx_hal_rcc.o
      1276         16          0          0          0       2396   stm32f7xx_hal_rcc_ex.o
        48          0          0          0          0       1191   stm32f7xx_hal_rng.o
      2284         16          0          0          0      16199   stm32f7xx_hal_sd.o
       148          0          0          0          0       2944   stm32f7xx_hal_sdram.o
        42          6          0          0          0       5153   stm32f7xx_it.o
       278          6          0          0          0       3668   stm32f7xx_ll_fmc.o
      1616         42          0          0          0      23902   stm32f7xx_ll_sdmmc.o
        84         16         16          4          0       1399   system_stm32f7xx.o

    ----------------------------------------------------------------------
     16964        900       7364         92      17084    1057909   Object Totals
         0          0         32          0          0          0   (incl. Generated)
        32          0          0          7          0          0   (incl. Padding)

    ----------------------------------------------------------------------

      Code (inc. data)   RO Data    RW Data    ZI Data      Debug   Library Member Name

         0          0          0          0          0          0   entry.o
         0          0          0          0          0          0   entry10a.o
         0          0          0          0          0          0   entry11a.o
         8          4          0          0          0          0   entry2.o
         4          0          0          0          0          0   entry5.o
         0          0          0          0          0          0   entry7b.o
         0          0          0          0          0          0   entry8b.o
         8          4          0          0          0          0   entry9a.o
        30          0          0          0          0          0   handlers.o
        36          8          0          0          0         68   init.o
        30          0          0          0          0         68   llshl.o
        32          0          0          0          0         68   llushr.o
        36          0          0          0          0         68   memcpya.o
       884         10          0          0          0        420   printf6.o
        44          0          0          0          0         80   uidiv.o
        98          0          0          0          0         92   uldiv.o

    ----------------------------------------------------------------------
      1212         26          0          0          0        864   Library Totals
         2          0          0          0          0          0   (incl. Padding)

    ----------------------------------------------------------------------

      Code (inc. data)   RO Data    RW Data    ZI Data      Debug   Library Name

      1210         26          0          0          0        864   mc_w.l

    ----------------------------------------------------------------------
      1212         26          0          0          0        864   Library Totals

    ----------------------------------------------------------------------

==============================================================================


      Code (inc. data)   RO Data    RW Data    ZI Data      Debug   

     18176        926       7364         92      17084    1042861   Grand Totals
     18176        926       7364         92      17084    1042861   ELF Image Totals
     18176        926       7364         92          0          0   ROM Totals

==============================================================================

    Total RO  Size (Code + RO Data)                25540 (  24.94kB)
    Total RW  Size (RW Data + ZI Data)             17176 (  16.77kB)
    Total ROM Size (Code + RO Data + RW Data)      25632 (  25.03kB)

==============================================================================

